{
  "contractName": "Booking",
  "abi": [
    {
      "inputs": [],
      "stateMutability": "nonpayable",
      "type": "constructor"
    },
    {
      "anonymous": false,
      "inputs": [
        {
          "indexed": true,
          "internalType": "address",
          "name": "previousOwner",
          "type": "address"
        },
        {
          "indexed": true,
          "internalType": "address",
          "name": "newOwner",
          "type": "address"
        }
      ],
      "name": "OwnershipTransferred",
      "type": "event"
    },
    {
      "inputs": [
        {
          "internalType": "string",
          "name": "_name",
          "type": "string"
        },
        {
          "internalType": "string",
          "name": "_description",
          "type": "string"
        },
        {
          "internalType": "string",
          "name": "_location",
          "type": "string"
        }
      ],
      "name": "addHotel",
      "outputs": [],
      "stateMutability": "payable",
      "type": "function",
      "payable": true
    },
    {
      "inputs": [
        {
          "internalType": "uint256",
          "name": "_hotelId",
          "type": "uint256"
        },
        {
          "internalType": "uint256",
          "name": "_totalBeds",
          "type": "uint256"
        },
        {
          "internalType": "uint256",
          "name": "_pricePerNight",
          "type": "uint256"
        },
        {
          "internalType": "uint256",
          "name": "_number",
          "type": "uint256"
        },
        {
          "internalType": "string",
          "name": "_name",
          "type": "string"
        },
        {
          "internalType": "string",
          "name": "_description",
          "type": "string"
        }
      ],
      "name": "addRoom",
      "outputs": [],
      "stateMutability": "nonpayable",
      "type": "function"
    },
    {
      "inputs": [
        {
          "internalType": "uint256",
          "name": "",
          "type": "uint256"
        }
      ],
      "name": "bookings",
      "outputs": [
        {
          "internalType": "uint256",
          "name": "roomId",
          "type": "uint256"
        },
        {
          "internalType": "uint256",
          "name": "bookingId",
          "type": "uint256"
        },
        {
          "internalType": "uint256",
          "name": "bookingDate",
          "type": "uint256"
        },
        {
          "internalType": "uint256",
          "name": "amountPaid",
          "type": "uint256"
        },
        {
          "internalType": "address payable",
          "name": "tenant",
          "type": "address"
        }
      ],
      "stateMutability": "view",
      "type": "function",
      "constant": true
    },
    {
      "inputs": [
        {
          "internalType": "uint256",
          "name": "_hotelId",
          "type": "uint256"
        },
        {
          "internalType": "enum Hotel.HOTEL_CATEGORY",
          "name": "_category",
          "type": "uint8"
        }
      ],
      "name": "changeHotelCategory",
      "outputs": [],
      "stateMutability": "nonpayable",
      "type": "function"
    },
    {
      "inputs": [
        {
          "internalType": "address payable",
          "name": "_newOwner",
          "type": "address"
        },
        {
          "internalType": "uint256",
          "name": "_hotelId",
          "type": "uint256"
        }
      ],
      "name": "changeHotelOwner",
      "outputs": [],
      "stateMutability": "nonpayable",
      "type": "function"
    },
    {
      "inputs": [
        {
          "internalType": "uint256",
          "name": "",
          "type": "uint256"
        }
      ],
      "name": "existingHotelItemId",
      "outputs": [
        {
          "internalType": "bool",
          "name": "",
          "type": "bool"
        }
      ],
      "stateMutability": "view",
      "type": "function",
      "constant": true
    },
    {
      "inputs": [
        {
          "internalType": "string",
          "name": "",
          "type": "string"
        }
      ],
      "name": "existingHotelItemName",
      "outputs": [
        {
          "internalType": "bool",
          "name": "",
          "type": "bool"
        }
      ],
      "stateMutability": "view",
      "type": "function",
      "constant": true
    },
    {
      "inputs": [
        {
          "internalType": "uint256",
          "name": "",
          "type": "uint256"
        }
      ],
      "name": "existingRoomItem",
      "outputs": [
        {
          "internalType": "bool",
          "name": "",
          "type": "bool"
        }
      ],
      "stateMutability": "view",
      "type": "function",
      "constant": true
    },
    {
      "inputs": [
        {
          "internalType": "string",
          "name": "",
          "type": "string"
        }
      ],
      "name": "existingRoomItemName",
      "outputs": [
        {
          "internalType": "bool",
          "name": "",
          "type": "bool"
        }
      ],
      "stateMutability": "view",
      "type": "function",
      "constant": true
    },
    {
      "inputs": [
        {
          "internalType": "uint256",
          "name": "_hotelId",
          "type": "uint256"
        }
      ],
      "name": "getHotelBioData",
      "outputs": [
        {
          "internalType": "uint256",
          "name": "_id",
          "type": "uint256"
        },
        {
          "internalType": "uint256",
          "name": "_totalRooms",
          "type": "uint256"
        },
        {
          "internalType": "uint256",
          "name": "_date",
          "type": "uint256"
        },
        {
          "internalType": "string",
          "name": "_name",
          "type": "string"
        },
        {
          "internalType": "string",
          "name": "_description",
          "type": "string"
        },
        {
          "internalType": "string",
          "name": "_location",
          "type": "string"
        },
        {
          "internalType": "enum Hotel.HOTEL_CATEGORY",
          "name": "_category",
          "type": "uint8"
        }
      ],
      "stateMutability": "view",
      "type": "function",
      "constant": true
    },
    {
      "inputs": [
        {
          "internalType": "uint256",
          "name": "_roomId",
          "type": "uint256"
        }
      ],
      "name": "getId",
      "outputs": [
        {
          "internalType": "uint256",
          "name": "",
          "type": "uint256"
        }
      ],
      "stateMutability": "view",
      "type": "function",
      "constant": true
    },
    {
      "inputs": [
        {
          "internalType": "uint256",
          "name": "_roomId",
          "type": "uint256"
        }
      ],
      "name": "getName",
      "outputs": [
        {
          "internalType": "string",
          "name": "",
          "type": "string"
        }
      ],
      "stateMutability": "view",
      "type": "function",
      "constant": true
    },
    {
      "inputs": [
        {
          "internalType": "uint256",
          "name": "_roomId",
          "type": "uint256"
        }
      ],
      "name": "getRoomBioData",
      "outputs": [
        {
          "internalType": "uint256",
          "name": "_id",
          "type": "uint256"
        },
        {
          "internalType": "uint256",
          "name": "_numOfBeds",
          "type": "uint256"
        },
        {
          "internalType": "uint256",
          "name": "_hotelId",
          "type": "uint256"
        },
        {
          "internalType": "uint256",
          "name": "_pricePerNight",
          "type": "uint256"
        },
        {
          "internalType": "uint256",
          "name": "_number",
          "type": "uint256"
        },
        {
          "internalType": "bool",
          "name": "_isBooked",
          "type": "bool"
        },
        {
          "internalType": "address",
          "name": "_user",
          "type": "address"
        },
        {
          "internalType": "string",
          "name": "_name",
          "type": "string"
        },
        {
          "internalType": "string",
          "name": "_description",
          "type": "string"
        }
      ],
      "stateMutability": "view",
      "type": "function",
      "constant": true
    },
    {
      "inputs": [],
      "name": "hotelCategory",
      "outputs": [
        {
          "internalType": "enum Hotel.HOTEL_CATEGORY",
          "name": "",
          "type": "uint8"
        }
      ],
      "stateMutability": "view",
      "type": "function",
      "constant": true
    },
    {
      "inputs": [
        {
          "internalType": "uint256",
          "name": "",
          "type": "uint256"
        }
      ],
      "name": "hotelItemId",
      "outputs": [
        {
          "internalType": "uint256",
          "name": "id",
          "type": "uint256"
        },
        {
          "internalType": "uint256",
          "name": "totalRooms",
          "type": "uint256"
        },
        {
          "internalType": "uint256",
          "name": "creationDate",
          "type": "uint256"
        },
        {
          "internalType": "string",
          "name": "name",
          "type": "string"
        },
        {
          "internalType": "enum Hotel.HOTEL_CATEGORY",
          "name": "hotelCategory",
          "type": "uint8"
        },
        {
          "internalType": "string",
          "name": "description",
          "type": "string"
        },
        {
          "internalType": "string",
          "name": "locationAddress",
          "type": "string"
        },
        {
          "internalType": "address payable",
          "name": "user",
          "type": "address"
        }
      ],
      "stateMutability": "view",
      "type": "function",
      "constant": true
    },
    {
      "inputs": [
        {
          "internalType": "uint256",
          "name": "",
          "type": "uint256"
        }
      ],
      "name": "hotelItems",
      "outputs": [
        {
          "internalType": "uint256",
          "name": "id",
          "type": "uint256"
        },
        {
          "internalType": "uint256",
          "name": "totalRooms",
          "type": "uint256"
        },
        {
          "internalType": "uint256",
          "name": "creationDate",
          "type": "uint256"
        },
        {
          "internalType": "string",
          "name": "name",
          "type": "string"
        },
        {
          "internalType": "enum Hotel.HOTEL_CATEGORY",
          "name": "hotelCategory",
          "type": "uint8"
        },
        {
          "internalType": "string",
          "name": "description",
          "type": "string"
        },
        {
          "internalType": "string",
          "name": "locationAddress",
          "type": "string"
        },
        {
          "internalType": "address payable",
          "name": "user",
          "type": "address"
        }
      ],
      "stateMutability": "view",
      "type": "function",
      "constant": true
    },
    {
      "inputs": [],
      "name": "hotelListingFee",
      "outputs": [
        {
          "internalType": "uint256",
          "name": "",
          "type": "uint256"
        }
      ],
      "stateMutability": "view",
      "type": "function",
      "constant": true
    },
    {
      "inputs": [
        {
          "internalType": "address",
          "name": "",
          "type": "address"
        }
      ],
      "name": "hotelOwner",
      "outputs": [
        {
          "internalType": "uint256",
          "name": "id",
          "type": "uint256"
        },
        {
          "internalType": "uint256",
          "name": "totalRooms",
          "type": "uint256"
        },
        {
          "internalType": "uint256",
          "name": "creationDate",
          "type": "uint256"
        },
        {
          "internalType": "string",
          "name": "name",
          "type": "string"
        },
        {
          "internalType": "enum Hotel.HOTEL_CATEGORY",
          "name": "hotelCategory",
          "type": "uint8"
        },
        {
          "internalType": "string",
          "name": "description",
          "type": "string"
        },
        {
          "internalType": "string",
          "name": "locationAddress",
          "type": "string"
        },
        {
          "internalType": "address payable",
          "name": "user",
          "type": "address"
        }
      ],
      "stateMutability": "view",
      "type": "function",
      "constant": true
    },
    {
      "inputs": [],
      "name": "listAllHotels",
      "outputs": [
        {
          "components": [
            {
              "internalType": "uint256",
              "name": "id",
              "type": "uint256"
            },
            {
              "internalType": "uint256",
              "name": "totalRooms",
              "type": "uint256"
            },
            {
              "internalType": "uint256",
              "name": "creationDate",
              "type": "uint256"
            },
            {
              "internalType": "string",
              "name": "name",
              "type": "string"
            },
            {
              "internalType": "enum Hotel.HOTEL_CATEGORY",
              "name": "hotelCategory",
              "type": "uint8"
            },
            {
              "internalType": "string",
              "name": "description",
              "type": "string"
            },
            {
              "internalType": "string",
              "name": "locationAddress",
              "type": "string"
            },
            {
              "internalType": "address payable",
              "name": "user",
              "type": "address"
            }
          ],
          "internalType": "struct Hotel.HotelItem[]",
          "name": "",
          "type": "tuple[]"
        }
      ],
      "stateMutability": "view",
      "type": "function",
      "constant": true
    },
    {
      "inputs": [],
      "name": "listRooms",
      "outputs": [
        {
          "components": [
            {
              "internalType": "uint256",
              "name": "id",
              "type": "uint256"
            },
            {
              "internalType": "uint256",
              "name": "totalBeds",
              "type": "uint256"
            },
            {
              "internalType": "uint256",
              "name": "hotelId",
              "type": "uint256"
            },
            {
              "internalType": "uint256",
              "name": "pricePerNight",
              "type": "uint256"
            },
            {
              "internalType": "uint256",
              "name": "number",
              "type": "uint256"
            },
            {
              "internalType": "bool",
              "name": "isBooked",
              "type": "bool"
            },
            {
              "internalType": "address payable",
              "name": "user",
              "type": "address"
            },
            {
              "internalType": "string",
              "name": "name",
              "type": "string"
            },
            {
              "internalType": "string",
              "name": "description",
              "type": "string"
            }
          ],
          "internalType": "struct Room.RoomItem[]",
          "name": "",
          "type": "tuple[]"
        }
      ],
      "stateMutability": "view",
      "type": "function",
      "constant": true
    },
    {
      "inputs": [],
      "name": "owner",
      "outputs": [
        {
          "internalType": "address",
          "name": "",
          "type": "address"
        }
      ],
      "stateMutability": "view",
      "type": "function",
      "constant": true
    },
    {
      "inputs": [],
      "name": "renounceOwnership",
      "outputs": [],
      "stateMutability": "nonpayable",
      "type": "function"
    },
    {
      "inputs": [
        {
          "internalType": "uint256",
          "name": "",
          "type": "uint256"
        }
      ],
      "name": "roomItemId",
      "outputs": [
        {
          "internalType": "uint256",
          "name": "id",
          "type": "uint256"
        },
        {
          "internalType": "uint256",
          "name": "totalBeds",
          "type": "uint256"
        },
        {
          "internalType": "uint256",
          "name": "hotelId",
          "type": "uint256"
        },
        {
          "internalType": "uint256",
          "name": "pricePerNight",
          "type": "uint256"
        },
        {
          "internalType": "uint256",
          "name": "number",
          "type": "uint256"
        },
        {
          "internalType": "bool",
          "name": "isBooked",
          "type": "bool"
        },
        {
          "internalType": "address payable",
          "name": "user",
          "type": "address"
        },
        {
          "internalType": "string",
          "name": "name",
          "type": "string"
        },
        {
          "internalType": "string",
          "name": "description",
          "type": "string"
        }
      ],
      "stateMutability": "view",
      "type": "function",
      "constant": true
    },
    {
      "inputs": [
        {
          "internalType": "address",
          "name": "",
          "type": "address"
        }
      ],
      "name": "roomOwner",
      "outputs": [
        {
          "internalType": "uint256",
          "name": "id",
          "type": "uint256"
        },
        {
          "internalType": "uint256",
          "name": "totalBeds",
          "type": "uint256"
        },
        {
          "internalType": "uint256",
          "name": "hotelId",
          "type": "uint256"
        },
        {
          "internalType": "uint256",
          "name": "pricePerNight",
          "type": "uint256"
        },
        {
          "internalType": "uint256",
          "name": "number",
          "type": "uint256"
        },
        {
          "internalType": "bool",
          "name": "isBooked",
          "type": "bool"
        },
        {
          "internalType": "address payable",
          "name": "user",
          "type": "address"
        },
        {
          "internalType": "string",
          "name": "name",
          "type": "string"
        },
        {
          "internalType": "string",
          "name": "description",
          "type": "string"
        }
      ],
      "stateMutability": "view",
      "type": "function",
      "constant": true
    },
    {
      "inputs": [
        {
          "internalType": "uint256",
          "name": "",
          "type": "uint256"
        }
      ],
      "name": "roomTenant",
      "outputs": [
        {
          "internalType": "address",
          "name": "",
          "type": "address"
        }
      ],
      "stateMutability": "view",
      "type": "function",
      "constant": true
    },
    {
      "inputs": [
        {
          "internalType": "uint256",
          "name": "",
          "type": "uint256"
        }
      ],
      "name": "rooms",
      "outputs": [
        {
          "internalType": "uint256",
          "name": "id",
          "type": "uint256"
        },
        {
          "internalType": "uint256",
          "name": "totalBeds",
          "type": "uint256"
        },
        {
          "internalType": "uint256",
          "name": "hotelId",
          "type": "uint256"
        },
        {
          "internalType": "uint256",
          "name": "pricePerNight",
          "type": "uint256"
        },
        {
          "internalType": "uint256",
          "name": "number",
          "type": "uint256"
        },
        {
          "internalType": "bool",
          "name": "isBooked",
          "type": "bool"
        },
        {
          "internalType": "address payable",
          "name": "user",
          "type": "address"
        },
        {
          "internalType": "string",
          "name": "name",
          "type": "string"
        },
        {
          "internalType": "string",
          "name": "description",
          "type": "string"
        }
      ],
      "stateMutability": "view",
      "type": "function",
      "constant": true
    },
    {
      "inputs": [
        {
          "internalType": "uint256",
          "name": "_fee",
          "type": "uint256"
        }
      ],
      "name": "setListingFee",
      "outputs": [],
      "stateMutability": "nonpayable",
      "type": "function"
    },
    {
      "inputs": [
        {
          "internalType": "uint256",
          "name": "_roomId",
          "type": "uint256"
        },
        {
          "internalType": "uint256",
          "name": "_price",
          "type": "uint256"
        }
      ],
      "name": "setNightPrice",
      "outputs": [],
      "stateMutability": "nonpayable",
      "type": "function"
    },
    {
      "inputs": [],
      "name": "totalBookings",
      "outputs": [
        {
          "internalType": "uint256",
          "name": "",
          "type": "uint256"
        }
      ],
      "stateMutability": "view",
      "type": "function",
      "constant": true
    },
    {
      "inputs": [],
      "name": "totalHotels",
      "outputs": [
        {
          "internalType": "uint256",
          "name": "",
          "type": "uint256"
        }
      ],
      "stateMutability": "view",
      "type": "function",
      "constant": true
    },
    {
      "inputs": [],
      "name": "totalRooms",
      "outputs": [
        {
          "internalType": "uint256",
          "name": "",
          "type": "uint256"
        }
      ],
      "stateMutability": "view",
      "type": "function",
      "constant": true
    },
    {
      "inputs": [
        {
          "internalType": "address",
          "name": "newOwner",
          "type": "address"
        }
      ],
      "name": "transferOwnership",
      "outputs": [],
      "stateMutability": "nonpayable",
      "type": "function"
    },
    {
      "inputs": [
        {
          "internalType": "uint256",
          "name": "_roomId",
          "type": "uint256"
        },
        {
          "internalType": "uint256",
          "name": "_numOfNights",
          "type": "uint256"
        }
      ],
      "name": "bookRoom",
      "outputs": [],
      "stateMutability": "payable",
      "type": "function",
      "payable": true
    },
    {
      "inputs": [
        {
          "internalType": "uint256",
          "name": "_roomId",
          "type": "uint256"
        }
      ],
      "name": "checkOut",
      "outputs": [],
      "stateMutability": "payable",
      "type": "function",
      "payable": true
    }
  ],
  "bytecode": "0x6080604052600060025564641dff4c006003556000600b5560006014553480156200002957600080fd5b5062000035336200003f565b600180556200008f565b600080546001600160a01b038381166001600160a01b0319831681178455604051919092169283917f8be0079c531659141344cd1fd0a4f28419497f9722a3daafe3b4186f6b6457e09190a35050565b61346a806200009f6000396000f3fe6080604052600436106101f95760003560e01c8063715018a61161010d5780639668ce3e116100a0578063c210c5321161006f578063c210c5321461066b578063c5a56e821461068d578063c89e4963146106ad578063cee9e078146106cd578063f2fde38b146106fd57600080fd5b80639668ce3e14610609578063af5537fa1461061f578063b2afef8214610635578063bbc02ce21461065557600080fd5b80638da5cb5b116100dc5780638da5cb5b1461059557806391aa8489146105b35780639524a38e146105c9578063958aa59b146105e957600080fd5b8063715018a6146104ef57806374dbda051461050457806380865877146105345780638a3a1a181461058257600080fd5b80631dab301e116101905780634dce717e1161015f5780634dce717e1461040c5780634ee9a94d14610447578063545a153a146104675780636b8ff574146104a257806370f3bfd8146104cf57600080fd5b80631dab301e1461034757806330776497146103985780633716236e146103b8578063387329f9146103ec57600080fd5b8063131dbd09116101cc578063131dbd09146102ca5780631459cb36146102ec5780631bae0ac8146102ff5780631bd2eeee1461033457600080fd5b80630aaecc35146101fe5780630af272f71461024e5780630fa0200d1461028157806310f70192146102a8575b600080fd5b34801561020a57600080fd5b50610239610219366004612b8d565b805160208183018101805160128252928201919093012091525460ff1681565b60405190151581526020015b60405180910390f35b34801561025a57600080fd5b5061026e610269366004612bca565b61071d565b6040516102459796959493929190612c6b565b34801561028d57600080fd5b5060055461029b9060ff1681565b6040516102459190612cd2565b3480156102b457600080fd5b506102bd610952565b6040516102459190612ce6565b3480156102d657600080fd5b506102ea6102e5366004612bca565b610b2f565b005b6102ea6102fa366004612dc5565b610b8c565b34801561030b57600080fd5b5061031f61031a366004612bca565b611140565b60405161024599989796959493929190612e4d565b6102ea610342366004612bca565b6112bd565b34801561035357600080fd5b50610367610362366004612bca565b61139e565b6040805195865260208601949094529284019190915260608301526001600160a01b0316608082015260a001610245565b3480156103a457600080fd5b5061031f6103b3366004612bca565b6113e8565b3480156103c457600080fd5b506103d86103d3366004612ecf565b611442565b604051610245989796959493929190612ef3565b3480156103f857600080fd5b506102ea610407366004612f6c565b61162f565b34801561041857600080fd5b50610239610427366004612b8d565b8051602081830181018051600a8252928201919093012091525460ff1681565b34801561045357600080fd5b5061031f610462366004612ecf565b6117c8565b34801561047357600080fd5b50610494610482366004612bca565b60009081526010602052604090205490565b604051908152602001610245565b3480156104ae57600080fd5b506104c26104bd366004612bca565b611822565b6040516102459190612f98565b3480156104db57600080fd5b506102ea6104ea366004612fab565b6118c7565b3480156104fb57600080fd5b506102ea6119fb565b34801561051057600080fd5b5061023961051f366004612bca565b60096020526000908152604090205460ff1681565b34801561054057600080fd5b5061056a61054f366004612bca565b600f602052600090815260409020546001600160a01b031681565b6040516001600160a01b039091168152602001610245565b6102ea610590366004612fdf565b611a0f565b3480156105a157600080fd5b506000546001600160a01b031661056a565b3480156105bf57600080fd5b5061049460035481565b3480156105d557600080fd5b506103d86105e4366004612bca565b611c38565b3480156105f557600080fd5b5061031f610604366004612bca565b611c68565b34801561061557600080fd5b5061049460145481565b34801561062b57600080fd5b50610494600b5481565b34801561064157600080fd5b506102ea610650366004613001565b611e69565b34801561066157600080fd5b5061049460025481565b34801561067757600080fd5b506106806123be565b604051610245919061308a565b34801561069957600080fd5b506102ea6106a8366004612fdf565b612632565b3480156106b957600080fd5b506103d86106c8366004612bca565b6126ff565b3480156106d957600080fd5b506102396106e8366004612bca565b60116020526000908152604090205460ff1681565b34801561070957600080fd5b506102ea610718366004612ecf565b612744565b60008181526009602052604081205481908190606090819081908490889060ff1615156001146107685760405162461bcd60e51b815260040161075f90613170565b60405180910390fd5b6000898152600760205260409020805460018201546002830154600384018054939c50919a5098509061079a9061319e565b80601f01602080910402602001604051908101604052809291908181526020018280546107c69061319e565b80156108135780601f106107e857610100808354040283529160200191610813565b820191906000526020600020905b8154815290600101906020018083116107f657829003601f168201915b505050505095508060050180546108299061319e565b80601f01602080910402602001604051908101604052809291908181526020018280546108559061319e565b80156108a25780601f10610877576101008083540402835291602001916108a2565b820191906000526020600020905b81548152906001019060200180831161088557829003601f168201915b505050505094508060060180546108b89061319e565b80601f01602080910402602001604051908101604052809291908181526020018280546108e49061319e565b80156109315780601f1061090657610100808354040283529160200191610931565b820191906000526020600020905b81548152906001019060200180831161091457829003601f168201915b5050506004909301549a9c999b50979996989597509560ff16949350505050565b6060600d805480602002602001604051908101604052809291908181526020016000905b82821015610b26576000848152602090819020604080516101208101825260088602909201805483526001810154938301939093526002830154908201526003820154606082015260048201546080820152600582015460ff8116151560a083015261010090046001600160a01b031660c082015260068201805491929160e084019190610a039061319e565b80601f0160208091040260200160405190810160405280929190818152602001828054610a2f9061319e565b8015610a7c5780601f10610a5157610100808354040283529160200191610a7c565b820191906000526020600020905b815481529060010190602001808311610a5f57829003601f168201915b50505050508152602001600782018054610a959061319e565b80601f0160208091040260200160405190810160405280929190818152602001828054610ac19061319e565b8015610b0e5780601f10610ae357610100808354040283529160200191610b0e565b820191906000526020600020905b815481529060010190602001808311610af157829003601f168201915b50505050508152505081526020019060010190610976565b50505050905090565b610b376127bd565b80600003610b875760405162461bcd60e51b815260206004820152601a60248201527f4c697374696e67204665652043616e6e6f74206265207a65726f000000000000604482015260640161075f565b600355565b82600a81604051610b9d91906131d8565b9081526040519081900360200190205460ff1615610bf15760405162461bcd60e51b8152602060048201526011602482015270486f74656c204e616d652045786973747360781b604482015260640161075f565b6000815111610c425760405162461bcd60e51b815260206004820152601d60248201527f506c6561736520737065636966792074686520686f74656c206e616d65000000604482015260640161075f565b610c4a612817565b33610c5457600080fd5b6003543414610c9b5760405162461bcd60e51b8152602060048201526013602482015272496e76616c6964204c697374696e672046656560681b604482015260640161075f565b6000835111610cf85760405162461bcd60e51b8152602060048201526024808201527f506c6561736520737065636966792074686520686f74656c20646573637269706044820152633a34b7b760e11b606482015260840161075f565b6000825111610d5a5760405162461bcd60e51b815260206004820152602860248201527f506c65617365207370656369667920746865206c6f636174696f6e206f6620746044820152671a19481a1bdd195b60c21b606482015260840161075f565b610d68600480546001019055565b6000610d7360045490565b90506040518061010001604052808281526020016000815260200142815260200186815260200160006006811115610dad57610dad612c33565b81526020808201879052604080830187905233606093840152600085815260078352819020845181559184015160018301558301516002820155908201516003820190610dfa9082613243565b50608082015160048201805460ff19166001836006811115610e1e57610e1e612c33565b021790555060a08201516005820190610e379082613243565b5060c08201516006820190610e4c9082613243565b5060e09190910151600791820180546001600160a01b0319166001600160a01b0390921691909117905560008281526020919091526040812060068054600181810183559190935281547ff652222313e28459528d920b65115c16c04f3efc82aaedc97be59f3f377c0d3f6008909402938401908155908201547ff652222313e28459528d920b65115c16c04f3efc82aaedc97be59f3f377c0d4084015560028201547ff652222313e28459528d920b65115c16c04f3efc82aaedc97be59f3f377c0d4184015590917ff652222313e28459528d920b65115c16c04f3efc82aaedc97be59f3f377c0d4201610f446003840182613303565b50600482810154908201805460ff9092169160ff19166001836006811115610f6e57610f6e612c33565b0217905550600581810190610f8590840182613303565b50600681810190610f9890840182613303565b5060079182015490820180546001600160a01b0319166001600160a01b039092169190911790556000828152602091825260408082203383526008909352902081548155600182810154908201556002808301549082015560038082019061100290840182613303565b50600482810154908201805460ff9092169160ff1916600183600681111561102c5761102c612c33565b021790555060058181019061104390840182613303565b5060068181019061105690840182613303565b50600791820154910180546001600160a01b0319166001600160a01b0390921691909117905560028054600191906000906110929084906133f4565b909155505060008181526009602052604090819020805460ff191660019081179091559051600a906110c59088906131d8565b908152604051908190036020019020805491151560ff199092169190911790556110f76000546001600160a01b031690565b6001600160a01b03166108fc349081150290604051600060405180830381858888f1935050505015801561112f573d6000803e3d6000fd5b505061113a60018055565b50505050565b600d818154811061115057600080fd5b60009182526020909120600890910201805460018201546002830154600384015460048501546005860154600687018054969850949693959294919360ff8216936101009092046001600160a01b03169290916111ac9061319e565b80601f01602080910402602001604051908101604052809291908181526020018280546111d89061319e565b80156112255780601f106111fa57610100808354040283529160200191611225565b820191906000526020600020905b81548152906001019060200180831161120857829003601f168201915b50505050509080600701805461123a9061319e565b80601f01602080910402602001604051908101604052809291908181526020018280546112669061319e565b80156112b35780601f10611288576101008083540402835291602001916112b3565b820191906000526020600020905b81548152906001019060200180831161129657829003601f168201915b5050505050905089565b6000818152601060205260409020600581015460ff1615156001146113195760405162461bcd60e51b8152602060048201526012602482015271149bdbdb481a5cc81b9bdd08189bdbdad95960721b604482015260640161075f565b80546000908152600f60205260409020546001600160a01b031633146113905760405162461bcd60e51b815260206004820152602660248201527f596f752063757272656e746c7920646f6e742072657369646520696e207468696044820152657320726f6f6d60d01b606482015260840161075f565b600501805460ff1916905550565b601381815481106113ae57600080fd5b600091825260209091206005909102018054600182015460028301546003840154600490940154929450909290916001600160a01b031685565b60106020526000908152604090208054600182015460028301546003840154600485015460058601546006870180549697959694959394929360ff8316936101009093046001600160a01b0316929091906111ac9061319e565b6008602052600090815260409020805460018201546002830154600384018054939492939192916114729061319e565b80601f016020809104026020016040519081016040528092919081815260200182805461149e9061319e565b80156114eb5780601f106114c0576101008083540402835291602001916114eb565b820191906000526020600020905b8154815290600101906020018083116114ce57829003601f168201915b5050506004840154600585018054949560ff90921694919350915061150f9061319e565b80601f016020809104026020016040519081016040528092919081815260200182805461153b9061319e565b80156115885780601f1061155d57610100808354040283529160200191611588565b820191906000526020600020905b81548152906001019060200180831161156b57829003601f168201915b50505050509080600601805461159d9061319e565b80601f01602080910402602001604051908101604052809291908181526020018280546115c99061319e565b80156116165780601f106115eb57610100808354040283529160200191611616565b820191906000526020600020905b8154815290600101906020018083116115f957829003601f168201915b505050600790930154919250506001600160a01b031688565b600081815260096020526040902054819060ff1615156001146116645760405162461bcd60e51b815260040161075f90613170565b6000828152600760208190526040909120015482906001600160a01b031633146116d05760405162461bcd60e51b815260206004820152601e60248201527f596f7520446f204e6f74204f776e205468697320486f74656c204974656d0000604482015260640161075f565b6001600160a01b03841633036117335760405162461bcd60e51b815260206004820152602260248201527f596f75206172652074686520726967687466756c206f776e657220616c726561604482015261647960f01b606482015260840161075f565b6001600160a01b0384166117945760405162461bcd60e51b815260206004820152602260248201527f506c65617365207370656369667920612076616c696420455448206164647265604482015261737360f01b606482015260840161075f565b505060009081526007602081905260409091200180546001600160a01b0319166001600160a01b0392909216919091179055565b600e6020526000908152604090208054600182015460028301546003840154600485015460058601546006870180549697959694959394929360ff8316936101009093046001600160a01b0316929091906111ac9061319e565b60008181526010602052604090206006018054606091906118429061319e565b80601f016020809104026020016040519081016040528092919081815260200182805461186e9061319e565b80156118bb5780601f10611890576101008083540402835291602001916118bb565b820191906000526020600020905b81548152906001019060200180831161189e57829003601f168201915b50505050509050919050565b600082815260096020526040902054829060ff1615156001146118fc5760405162461bcd60e51b815260040161075f90613170565b6000838152600760208190526040909120015483906001600160a01b031633146119685760405162461bcd60e51b815260206004820152601e60248201527f596f7520446f204e6f74204f776e205468697320486f74656c204974656d0000604482015260640161075f565b60008481526007602052604081209084600681111561198957611989612c33565b0361199657611996613407565b600481015460ff1660068111156119af576119af612c33565b8460068111156119c1576119c1612c33565b036119ce576119ce613407565b60048101805485919060ff191660018360068111156119ef576119ef612c33565b02179055505050505050565b611a036127bd565b611a0d6000612870565b565b60008281526010602052604081206003810154909190611a2f908461341d565b600583015490915061010090046001600160a01b03163303611a935760405162461bcd60e51b815260206004820152601d60248201527f596f752063616e6e6f7420626f6f6b20796f7572206f776e20726f6f6d000000604482015260640161075f565b3331811115611ad95760405162461bcd60e51b8152602060048201526012602482015271496e73756666696369656e742046756e647360701b604482015260640161075f565b82600003611b295760405162461bcd60e51b815260206004820152601f60248201527f4e756d626572206f66206e69676874732063616e6e6f74206265207a65726f00604482015260640161075f565b803414611ba0576040805162461bcd60e51b81526020600482015260248101919091527f506c65617365207061792074686520626f6f6b696e672066656520626173656460448201527f206f6e206e756d626572206f66206e696768747320746f206265207370656e74606482015260840161075f565b611bae601580546001019055565b6000611bb960155490565b60058401546040519192506001600160a01b0361010090910416903480156108fc02916000818181858888f19350505050158015611bfb573d6000803e3d6000fd5b50611c05856128c0565b8254611c139082343361293a565b5050546000908152600f6020526040902080546001600160a01b031916331790555050565b6007602052600090815260409020805460018201546002830154600384018054939492939192916114729061319e565b60008181526011602052604081205481908190819081908190819060609081908a9060ff161515600114611cd45760405162461bcd60e51b8152602060048201526013602482015272149bdbdb48111bd95cc8139bdd08115e1a5cdd606a1b604482015260640161075f565b6000601060008d8152602001908152602001600020905080600001549a50806001015499508060020154985080600301549750806004015496508060050160009054906101000a900460ff1695508060050160019054906101000a90046001600160a01b03169450806006018054611d4b9061319e565b80601f0160208091040260200160405190810160405280929190818152602001828054611d779061319e565b8015611dc45780601f10611d9957610100808354040283529160200191611dc4565b820191906000526020600020905b815481529060010190602001808311611da757829003601f168201915b50505050509350806007018054611dda9061319e565b80601f0160208091040260200160405190810160405280929190818152602001828054611e069061319e565b8015611e535780601f10611e2857610100808354040283529160200191611e53565b820191906000526020600020905b815481529060010190602001808311611e3657829003601f168201915b5050505050925050509193959799909294969850565b33611e7357600080fd5b84600003611ec35760405162461bcd60e51b815260206004820152601d60248201527f4e756d626572206f6620626564732063616e6e6f74206265207a65726f000000604482015260640161075f565b6000815111611f205760405162461bcd60e51b815260206004820152602360248201527f506c6561736520737065636966792074686520726f6f6d20646573637269707460448201526234b7b760e91b606482015260840161075f565b83600003611f7c5760405162461bcd60e51b815260206004820152602360248201527f54686520726f6f6d206e696768742070726963652063616e6e6f74206265207a60448201526265726f60e81b606482015260840161075f565b611f8a600c80546001019055565b6000611f95600c5490565b90506000600760008981526020019081526020016000206000015490506000600760008a8152602001908152602001600020600101549050604051806101200160405280848152602001898152602001838152602001888152602001878152602001600015158152602001336001600160a01b031681526020018681526020018581525060106000858152602001908152602001600020600082015181600001556020820151816001015560408201518160020155606082015181600301556080820151816004015560a08201518160050160006101000a81548160ff02191690831515021790555060c08201518160050160016101000a8154816001600160a01b0302191690836001600160a01b0316021790555060e08201518160060190816120c09190613243565b5061010082015160078201906120d69082613243565b5050506000838152601060205260408120600d80546001818101835591909352815460089093027fd7b6990105719101dabeb77144f2a3385c8033acd3af97e9423a695e81ad1eb58101938455908201547fd7b6990105719101dabeb77144f2a3385c8033acd3af97e9423a695e81ad1eb682015560028201547fd7b6990105719101dabeb77144f2a3385c8033acd3af97e9423a695e81ad1eb782015560038201547fd7b6990105719101dabeb77144f2a3385c8033acd3af97e9423a695e81ad1eb882015560048201547fd7b6990105719101dabeb77144f2a3385c8033acd3af97e9423a695e81ad1eb98201556005820180547fd7b6990105719101dabeb77144f2a3385c8033acd3af97e9423a695e81ad1eba8301805460ff909216151560ff1983168117825592546001600160a01b03610100918290041602610100600160a81b03199093166001600160a81b0319909216919091179190911790559091907fd7b6990105719101dabeb77144f2a3385c8033acd3af97e9423a695e81ad1ebb016122696006840182613303565b5060078181019061227c90840182613303565b5050506000838152601060209081526040808320338452600e909252909120815481556001808301549082015560028083015490820155600380830154908201556004808301549082015560058083018054918301805460ff909316151560ff198416811782559154610100908190046001600160a01b031602610100600160a81b03199092166001600160a81b03199093169290921717905560068082019061232890840182613303565b5060078181019061233b90840182613303565b5061234b915082905060016133f4565b90506001600b600082825461236091906133f4565b909155505060008381526011602052604090819020805460ff1916600190811790915590516012906123939088906131d8565b908152604051908190036020019020805491151560ff19909216919091179055505050505050505050565b60606006805480602002602001604051908101604052809291908181526020016000905b82821015610b265783829060005260206000209060080201604051806101000160405290816000820154815260200160018201548152602001600282015481526020016003820180546124349061319e565b80601f01602080910402602001604051908101604052809291908181526020018280546124609061319e565b80156124ad5780601f10612482576101008083540402835291602001916124ad565b820191906000526020600020905b81548152906001019060200180831161249057829003601f168201915b5050509183525050600482015460209091019060ff1660068111156124d4576124d4612c33565b60068111156124e5576124e5612c33565b81526020016005820180546124f99061319e565b80601f01602080910402602001604051908101604052809291908181526020018280546125259061319e565b80156125725780601f1061254757610100808354040283529160200191612572565b820191906000526020600020905b81548152906001019060200180831161255557829003601f168201915b5050505050815260200160068201805461258b9061319e565b80601f01602080910402602001604051908101604052809291908181526020018280546125b79061319e565b80156126045780601f106125d957610100808354040283529160200191612604565b820191906000526020600020905b8154815290600101906020018083116125e757829003601f168201915b5050509183525050600791909101546001600160a01b031660209182015290825260019290920191016123e2565b600082815260106020526040902060050154829061010090046001600160a01b031633146126a25760405162461bcd60e51b815260206004820152601860248201527f596f7520446f204e6f74204f776e205468697320526f6f6d0000000000000000604482015260640161075f565b816000036126e95760405162461bcd60e51b815260206004820152601460248201527370726963652043616e6e6f74206265207a65726f60601b604482015260640161075f565b5060009182526010602052604090912060030155565b6006818154811061270f57600080fd5b90600052602060002090600802016000915090508060000154908060010154908060020154908060030180546114729061319e565b61274c6127bd565b6001600160a01b0381166127b15760405162461bcd60e51b815260206004820152602660248201527f4f776e61626c653a206e6577206f776e657220697320746865207a65726f206160448201526564647265737360d01b606482015260840161075f565b6127ba81612870565b50565b6000546001600160a01b03163314611a0d5760405162461bcd60e51b815260206004820181905260248201527f4f776e61626c653a2063616c6c6572206973206e6f7420746865206f776e6572604482015260640161075f565b6002600154036128695760405162461bcd60e51b815260206004820152601f60248201527f5265656e7472616e637947756172643a207265656e7472616e742063616c6c00604482015260640161075f565b6002600155565b600080546001600160a01b038381166001600160a01b0319831681178455604051919092169283917f8be0079c531659141344cd1fd0a4f28419497f9722a3daafe3b4186f6b6457e09190a35050565b600081815260116020526040902054819060ff16151560011461291b5760405162461bcd60e51b8152602060048201526013602482015272149bdbdb48111bd95cc8139bdd08115e1a5cdd606a1b604482015260640161075f565b506000908152601060205260409020600501805460ff19166001179055565b6001600160a01b03811661295057612950613407565b3361295a57600080fd5b826000036129aa5760405162461bcd60e51b815260206004820152601960248201527f426f6f6b696e672049442063616e6e6f74206265207a65726f00000000000000604482015260640161075f565b6040805160a0810182528581526020810185815242928201928352606082018581526001600160a01b03858116608085019081526013805460018082018355600092835287517f66de8ffda797e3de9c05e8fc57b3bf0ec28a930d40b0d285d93c06501cf6a09060059093029283015595517f66de8ffda797e3de9c05e8fc57b3bf0ec28a930d40b0d285d93c06501cf6a09182015596517f66de8ffda797e3de9c05e8fc57b3bf0ec28a930d40b0d285d93c06501cf6a09288015592517f66de8ffda797e3de9c05e8fc57b3bf0ec28a930d40b0d285d93c06501cf6a093870155517f66de8ffda797e3de9c05e8fc57b3bf0ec28a930d40b0d285d93c06501cf6a09490950180546001600160a01b03191695909116949094179093556014805492939192909190612ade9084906133f4565b90915550505050505050565b634e487b7160e01b600052604160045260246000fd5b600082601f830112612b1157600080fd5b813567ffffffffffffffff80821115612b2c57612b2c612aea565b604051601f8301601f19908116603f01168101908282118183101715612b5457612b54612aea565b81604052838152866020858801011115612b6d57600080fd5b836020870160208301376000602085830101528094505050505092915050565b600060208284031215612b9f57600080fd5b813567ffffffffffffffff811115612bb657600080fd5b612bc284828501612b00565b949350505050565b600060208284031215612bdc57600080fd5b5035919050565b60005b83811015612bfe578181015183820152602001612be6565b50506000910152565b60008151808452612c1f816020860160208601612be3565b601f01601f19169290920160200192915050565b634e487b7160e01b600052602160045260246000fd5b60078110612c6757634e487b7160e01b600052602160045260246000fd5b9052565b87815286602082015285604082015260e060608201526000612c9060e0830187612c07565b8281036080840152612ca28187612c07565b905082810360a0840152612cb68186612c07565b915050612cc660c0830184612c49565b98975050505050505050565b60208101612ce08284612c49565b92915050565b60006020808301818452808551808352604092508286019150828160051b87010184880160005b83811015612db757888303603f1901855281518051845287810151888501528681015187850152606080820151908501526080808201519085015260a08082015115159085015260c0808201516001600160a01b03169085015260e0808201516101208287018190529190612d8483880182612c07565b925050506101008083015192508582038187015250612da38183612c07565b968901969450505090860190600101612d0d565b509098975050505050505050565b600080600060608486031215612dda57600080fd5b833567ffffffffffffffff80821115612df257600080fd5b612dfe87838801612b00565b94506020860135915080821115612e1457600080fd5b612e2087838801612b00565b93506040860135915080821115612e3657600080fd5b50612e4386828701612b00565b9150509250925092565b60006101208b83528a602084015289604084015288606084015287608084015286151560a084015260018060a01b03861660c08401528060e0840152612e9581840186612c07565b9050828103610100840152612eaa8185612c07565b9c9b505050505050505050505050565b6001600160a01b03811681146127ba57600080fd5b600060208284031215612ee157600080fd5b8135612eec81612eba565b9392505050565b60006101008a8352896020840152886040840152806060840152612f1981840189612c07565b9050612f286080840188612c49565b82810360a0840152612f3a8187612c07565b905082810360c0840152612f4e8186612c07565b91505060018060a01b03831660e08301529998505050505050505050565b60008060408385031215612f7f57600080fd5b8235612f8a81612eba565b946020939093013593505050565b602081526000612eec6020830184612c07565b60008060408385031215612fbe57600080fd5b82359150602083013560078110612fd457600080fd5b809150509250929050565b60008060408385031215612ff257600080fd5b50508035926020909101359150565b60008060008060008060c0878903121561301a57600080fd5b86359550602087013594506040870135935060608701359250608087013567ffffffffffffffff8082111561304e57600080fd5b61305a8a838b01612b00565b935060a089013591508082111561307057600080fd5b5061307d89828a01612b00565b9150509295509295509295565b60006020808301818452808551808352604092508286019150828160051b87010184880160005b83811015612db757603f198984030185528151610100815185528882015189860152878201518886015260608083015182828801526130f283880182612c07565b9250505060808083015161310882880182612c49565b505060a080830151868303828801526131218382612c07565b9250505060c0808301518683038288015261313c8382612c07565b9250505060e080830151925061315c818701846001600160a01b03169052565b5095880195935050908601906001016130b1565b602080825260149082015273121bdd195b08111bd95cc8139bdd08115e1a5cdd60621b604082015260600190565b600181811c908216806131b257607f821691505b6020821081036131d257634e487b7160e01b600052602260045260246000fd5b50919050565b600082516131ea818460208701612be3565b9190910192915050565b601f82111561323e57600081815260208120601f850160051c8101602086101561321b5750805b601f850160051c820191505b8181101561323a57828155600101613227565b5050505b505050565b815167ffffffffffffffff81111561325d5761325d612aea565b6132718161326b845461319e565b846131f4565b602080601f8311600181146132a6576000841561328e5750858301515b600019600386901b1c1916600185901b17855561323a565b600085815260208120601f198616915b828110156132d5578886015182559484019460019091019084016132b6565b50858210156132f35787850151600019600388901b60f8161c191681555b5050505050600190811b01905550565b81810361330e575050565b613318825461319e565b67ffffffffffffffff81111561333057613330612aea565b61333e8161326b845461319e565b6000601f821160018114613372576000831561335a5750848201545b600019600385901b1c1916600184901b1784556133d7565b600085815260209020601f19841690600086815260209020845b838110156133ac578286015482556001958601959091019060200161338c565b50858310156133ca5781850154600019600388901b60f8161c191681555b50505060018360011b0184555b5050505050565b634e487b7160e01b600052601160045260246000fd5b80820180821115612ce057612ce06133de565b634e487b7160e01b600052600160045260246000fd5b8082028115828204841417612ce057612ce06133de56fea2646970667358221220ae36a3ca32ee33bffd9ed4eb6cfd0a4e2a161ca72d47adcbf47e40baf625542664736f6c63430008110033",
  "immutableReferences": {},
  "source": "// SPDX-License-Identifier: MIT\npragma solidity ^0.8.0;\n//import '@openzeppelin/contracts/utils/math/SafeMath.sol';\nimport '@openzeppelin/contracts/security/ReentrancyGuard.sol';\nimport '@openzeppelin/contracts/utils/Counters.sol';\nimport './Room.sol';\n\ncontract Booking is Room{\n  //using SafeMath for uint256;\n  using Counters for Counters.Counter;\n\n  struct BookingItem{\n    uint roomId;\n    uint bookingId;\n    uint bookingDate;\n    uint amountPaid;\n    address payable tenant;\n  }\n\n  BookingItem[] public bookings;\n\n  uint public totalBookings = 0;\n  Counters.Counter private _bookingIds;\n\n  //event CheckoutSuccessfull(address indexed tenant, uint indexed roomId, uint indexed date);\n\n  constructor() {\n\n  }\n\n  function _registerBooking(uint _roomId, uint _bookingId,uint _amountPaid, address payable _tenant) internal{\n    assert(_tenant != address(0));\n    require(msg.sender != address(0));\n    require(_bookingId != 0,\"Booking ID cannot be zero\");\n    BookingItem memory newBooking = BookingItem(_roomId,_bookingId, block.timestamp,_amountPaid,_tenant);\n    bookings.push(newBooking);\n    totalBookings += 1;\n    //emit RoomBooked(block.timestamp, msg.sender,msg.value,_roomId);\n  }\n  \n  //nonReentrant\n  //roomExists(_roomId) \n  //isNotBooked(_roomId)\n  function bookRoom(uint _roomId,uint _numOfNights) public payable\n  {\n    RoomItem storage room = roomItemId[_roomId];\n    uint totalPayableAmount = _numOfNights * room.pricePerNight;\n    require(msg.sender != room.user,\"You cannot book your own room\");\n    require(msg.sender.balance >= totalPayableAmount,\"Insufficient Funds\");\n    require(_numOfNights != 0,\"Number of nights cannot be zero\");\n    require(msg.value == totalPayableAmount,\"Please pay the booking fee based on number of nights to be spent\");\n    _bookingIds.increment();\n    uint currentBookingId = _bookingIds.current();\n    room.user.transfer(msg.value);\n    _setBooked(_roomId);\n    _registerBooking(room.id,currentBookingId,msg.value, payable(msg.sender));\n    roomTenant[room.id] = msg.sender;\n  }\n\n  function checkOut(uint _roomId) public payable { //nonReentrant\n    RoomItem storage room = roomItemId[_roomId];\n    require(room.isBooked == true,\"Room is not booked\");\n    require(msg.sender == roomTenant[room.id],\"You currently dont reside in this room\");\n    room.isBooked = false;\n    //emit CheckoutSuccessfull(msg.sender,room.id,block.timestamp);\n  }\n\n}\n",
  "sourcePath": "C:\\Users\\hamza\\Downloads\\Hotel-Booking-Dapp-master\\Hotel-Booking-Dapp-master\\contracts\\Booking.sol",
  "compiler": {
    "name": "solc",
    "version": "0.8.17+commit.8df45f5f.Emscripten.clang"
  },
  "schemaVersion": "3.4.10",
  "updatedAt": "2022-12-05T23:01:01.941Z",
  "networkType": "ethereum",
  "devdoc": {
    "kind": "dev",
    "methods": {
      "owner()": {
        "details": "Returns the address of the current owner."
      },
      "renounceOwnership()": {
        "details": "Leaves the contract without owner. It will not be possible to call `onlyOwner` functions anymore. Can only be called by the current owner. NOTE: Renouncing ownership will leave the contract without an owner, thereby removing any functionality that is only available to the owner."
      },
      "transferOwnership(address)": {
        "details": "Transfers ownership of the contract to a new account (`newOwner`). Can only be called by the current owner."
      }
    },
    "version": 1
  },
  "userdoc": {
    "kind": "user",
    "methods": {},
    "version": 1
  }
}