{
  "contractName": "Hotel",
  "abi": [
    {
      "inputs": [],
      "stateMutability": "nonpayable",
      "type": "constructor"
    },
    {
      "anonymous": false,
      "inputs": [
        {
          "indexed": true,
          "internalType": "address",
          "name": "previousOwner",
          "type": "address"
        },
        {
          "indexed": true,
          "internalType": "address",
          "name": "newOwner",
          "type": "address"
        }
      ],
      "name": "OwnershipTransferred",
      "type": "event"
    },
    {
      "inputs": [
        {
          "internalType": "uint256",
          "name": "",
          "type": "uint256"
        }
      ],
      "name": "existingHotelItemId",
      "outputs": [
        {
          "internalType": "bool",
          "name": "",
          "type": "bool"
        }
      ],
      "stateMutability": "view",
      "type": "function",
      "constant": true
    },
    {
      "inputs": [
        {
          "internalType": "string",
          "name": "",
          "type": "string"
        }
      ],
      "name": "existingHotelItemName",
      "outputs": [
        {
          "internalType": "bool",
          "name": "",
          "type": "bool"
        }
      ],
      "stateMutability": "view",
      "type": "function",
      "constant": true
    },
    {
      "inputs": [],
      "name": "hotelCategory",
      "outputs": [
        {
          "internalType": "enum Hotel.HOTEL_CATEGORY",
          "name": "",
          "type": "uint8"
        }
      ],
      "stateMutability": "view",
      "type": "function",
      "constant": true
    },
    {
      "inputs": [
        {
          "internalType": "uint256",
          "name": "",
          "type": "uint256"
        }
      ],
      "name": "hotelItemId",
      "outputs": [
        {
          "internalType": "uint256",
          "name": "id",
          "type": "uint256"
        },
        {
          "internalType": "uint256",
          "name": "totalRooms",
          "type": "uint256"
        },
        {
          "internalType": "uint256",
          "name": "creationDate",
          "type": "uint256"
        },
        {
          "internalType": "string",
          "name": "name",
          "type": "string"
        },
        {
          "internalType": "enum Hotel.HOTEL_CATEGORY",
          "name": "hotelCategory",
          "type": "uint8"
        },
        {
          "internalType": "string",
          "name": "description",
          "type": "string"
        },
        {
          "internalType": "string",
          "name": "locationAddress",
          "type": "string"
        },
        {
          "internalType": "address payable",
          "name": "user",
          "type": "address"
        }
      ],
      "stateMutability": "view",
      "type": "function",
      "constant": true
    },
    {
      "inputs": [
        {
          "internalType": "uint256",
          "name": "",
          "type": "uint256"
        }
      ],
      "name": "hotelItems",
      "outputs": [
        {
          "internalType": "uint256",
          "name": "id",
          "type": "uint256"
        },
        {
          "internalType": "uint256",
          "name": "totalRooms",
          "type": "uint256"
        },
        {
          "internalType": "uint256",
          "name": "creationDate",
          "type": "uint256"
        },
        {
          "internalType": "string",
          "name": "name",
          "type": "string"
        },
        {
          "internalType": "enum Hotel.HOTEL_CATEGORY",
          "name": "hotelCategory",
          "type": "uint8"
        },
        {
          "internalType": "string",
          "name": "description",
          "type": "string"
        },
        {
          "internalType": "string",
          "name": "locationAddress",
          "type": "string"
        },
        {
          "internalType": "address payable",
          "name": "user",
          "type": "address"
        }
      ],
      "stateMutability": "view",
      "type": "function",
      "constant": true
    },
    {
      "inputs": [],
      "name": "hotelListingFee",
      "outputs": [
        {
          "internalType": "uint256",
          "name": "",
          "type": "uint256"
        }
      ],
      "stateMutability": "view",
      "type": "function",
      "constant": true
    },
    {
      "inputs": [
        {
          "internalType": "address",
          "name": "",
          "type": "address"
        }
      ],
      "name": "hotelOwner",
      "outputs": [
        {
          "internalType": "uint256",
          "name": "id",
          "type": "uint256"
        },
        {
          "internalType": "uint256",
          "name": "totalRooms",
          "type": "uint256"
        },
        {
          "internalType": "uint256",
          "name": "creationDate",
          "type": "uint256"
        },
        {
          "internalType": "string",
          "name": "name",
          "type": "string"
        },
        {
          "internalType": "enum Hotel.HOTEL_CATEGORY",
          "name": "hotelCategory",
          "type": "uint8"
        },
        {
          "internalType": "string",
          "name": "description",
          "type": "string"
        },
        {
          "internalType": "string",
          "name": "locationAddress",
          "type": "string"
        },
        {
          "internalType": "address payable",
          "name": "user",
          "type": "address"
        }
      ],
      "stateMutability": "view",
      "type": "function",
      "constant": true
    },
    {
      "inputs": [],
      "name": "owner",
      "outputs": [
        {
          "internalType": "address",
          "name": "",
          "type": "address"
        }
      ],
      "stateMutability": "view",
      "type": "function",
      "constant": true
    },
    {
      "inputs": [],
      "name": "renounceOwnership",
      "outputs": [],
      "stateMutability": "nonpayable",
      "type": "function"
    },
    {
      "inputs": [],
      "name": "totalHotels",
      "outputs": [
        {
          "internalType": "uint256",
          "name": "",
          "type": "uint256"
        }
      ],
      "stateMutability": "view",
      "type": "function",
      "constant": true
    },
    {
      "inputs": [
        {
          "internalType": "address",
          "name": "newOwner",
          "type": "address"
        }
      ],
      "name": "transferOwnership",
      "outputs": [],
      "stateMutability": "nonpayable",
      "type": "function"
    },
    {
      "inputs": [
        {
          "internalType": "uint256",
          "name": "_fee",
          "type": "uint256"
        }
      ],
      "name": "setListingFee",
      "outputs": [],
      "stateMutability": "nonpayable",
      "type": "function"
    },
    {
      "inputs": [
        {
          "internalType": "string",
          "name": "_name",
          "type": "string"
        },
        {
          "internalType": "string",
          "name": "_description",
          "type": "string"
        },
        {
          "internalType": "string",
          "name": "_location",
          "type": "string"
        }
      ],
      "name": "addHotel",
      "outputs": [],
      "stateMutability": "payable",
      "type": "function",
      "payable": true
    },
    {
      "inputs": [],
      "name": "listAllHotels",
      "outputs": [
        {
          "components": [
            {
              "internalType": "uint256",
              "name": "id",
              "type": "uint256"
            },
            {
              "internalType": "uint256",
              "name": "totalRooms",
              "type": "uint256"
            },
            {
              "internalType": "uint256",
              "name": "creationDate",
              "type": "uint256"
            },
            {
              "internalType": "string",
              "name": "name",
              "type": "string"
            },
            {
              "internalType": "enum Hotel.HOTEL_CATEGORY",
              "name": "hotelCategory",
              "type": "uint8"
            },
            {
              "internalType": "string",
              "name": "description",
              "type": "string"
            },
            {
              "internalType": "string",
              "name": "locationAddress",
              "type": "string"
            },
            {
              "internalType": "address payable",
              "name": "user",
              "type": "address"
            }
          ],
          "internalType": "struct Hotel.HotelItem[]",
          "name": "",
          "type": "tuple[]"
        }
      ],
      "stateMutability": "view",
      "type": "function",
      "constant": true
    },
    {
      "inputs": [
        {
          "internalType": "uint256",
          "name": "_hotelId",
          "type": "uint256"
        }
      ],
      "name": "getHotelBioData",
      "outputs": [
        {
          "internalType": "uint256",
          "name": "_id",
          "type": "uint256"
        },
        {
          "internalType": "uint256",
          "name": "_totalRooms",
          "type": "uint256"
        },
        {
          "internalType": "uint256",
          "name": "_date",
          "type": "uint256"
        },
        {
          "internalType": "string",
          "name": "_name",
          "type": "string"
        },
        {
          "internalType": "string",
          "name": "_description",
          "type": "string"
        },
        {
          "internalType": "string",
          "name": "_location",
          "type": "string"
        },
        {
          "internalType": "enum Hotel.HOTEL_CATEGORY",
          "name": "_category",
          "type": "uint8"
        }
      ],
      "stateMutability": "view",
      "type": "function",
      "constant": true
    },
    {
      "inputs": [
        {
          "internalType": "uint256",
          "name": "_hotelId",
          "type": "uint256"
        },
        {
          "internalType": "enum Hotel.HOTEL_CATEGORY",
          "name": "_category",
          "type": "uint8"
        }
      ],
      "name": "changeHotelCategory",
      "outputs": [],
      "stateMutability": "nonpayable",
      "type": "function"
    },
    {
      "inputs": [
        {
          "internalType": "uint256",
          "name": "_hotelId",
          "type": "uint256"
        }
      ],
      "name": "getName",
      "outputs": [
        {
          "internalType": "string",
          "name": "",
          "type": "string"
        }
      ],
      "stateMutability": "view",
      "type": "function",
      "constant": true
    },
    {
      "inputs": [
        {
          "internalType": "uint256",
          "name": "_hotelId",
          "type": "uint256"
        }
      ],
      "name": "getId",
      "outputs": [
        {
          "internalType": "uint256",
          "name": "",
          "type": "uint256"
        }
      ],
      "stateMutability": "view",
      "type": "function",
      "constant": true
    },
    {
      "inputs": [
        {
          "internalType": "address payable",
          "name": "_newOwner",
          "type": "address"
        },
        {
          "internalType": "uint256",
          "name": "_hotelId",
          "type": "uint256"
        }
      ],
      "name": "changeHotelOwner",
      "outputs": [],
      "stateMutability": "nonpayable",
      "type": "function"
    }
  ],
  "bytecode": "0x6080604052600060025564641dff4c0060035534801561001e57600080fd5b5061002833610031565b60018055610081565b600080546001600160a01b038381166001600160a01b0319831681178455604051919092169283917f8be0079c531659141344cd1fd0a4f28419497f9722a3daafe3b4186f6b6457e09190a35050565b611e01806100906000396000f3fe6080604052600436106101145760003560e01c806370f3bfd8116100a05780639524a38e116100645780639524a38e1461034e578063bbc02ce21461036e578063c210c53214610384578063c89e4963146103a6578063f2fde38b146103c657600080fd5b806370f3bfd8146102ab578063715018a6146102cb57806374dbda05146102e05780638da5cb5b1461031057806391aa84891461033857600080fd5b80633716236e116100e75780633716236e146101b1578063387329f9146101e55780634dce717e14610205578063545a153a146102505780636b8ff5741461027e57600080fd5b80630af272f7146101195780630fa0200d14610155578063131dbd091461017c5780631459cb361461019e575b600080fd5b34801561012557600080fd5b5061013961013436600461168f565b6103e6565b60405161014c9796959493929190611730565b60405180910390f35b34801561016157600080fd5b5060055461016f9060ff1681565b60405161014c9190611797565b34801561018857600080fd5b5061019c61019736600461168f565b61061b565b005b61019c6101ac36600461184e565b610678565b3480156101bd57600080fd5b506101d16101cc3660046118eb565b610c2c565b60405161014c98979695949392919061190f565b3480156101f157600080fd5b5061019c610200366004611988565b610e19565b34801561021157600080fd5b506102406102203660046119b4565b8051602081830181018051600a8252928201919093012091525460ff1681565b604051901515815260200161014c565b34801561025c57600080fd5b5061027061026b36600461168f565b610fb2565b60405190815260200161014c565b34801561028a57600080fd5b5061029e61029936600461168f565b610fff565b60405161014c91906119f1565b3480156102b757600080fd5b5061019c6102c6366004611a04565b6110d9565b3480156102d757600080fd5b5061019c61120d565b3480156102ec57600080fd5b506102406102fb36600461168f565b60096020526000908152604090205460ff1681565b34801561031c57600080fd5b506000546040516001600160a01b03909116815260200161014c565b34801561034457600080fd5b5061027060035481565b34801561035a57600080fd5b506101d161036936600461168f565b611221565b34801561037a57600080fd5b5061027060025481565b34801561039057600080fd5b50610399611251565b60405161014c9190611a38565b3480156103b257600080fd5b506101d16103c136600461168f565b6114ce565b3480156103d257600080fd5b5061019c6103e13660046118eb565b611513565b60008181526009602052604081205481908190606090819081908490889060ff1615156001146104315760405162461bcd60e51b815260040161042890611b2c565b60405180910390fd5b6000898152600760205260409020805460018201546002830154600384018054939c50919a5098509061046390611b5a565b80601f016020809104026020016040519081016040528092919081815260200182805461048f90611b5a565b80156104dc5780601f106104b1576101008083540402835291602001916104dc565b820191906000526020600020905b8154815290600101906020018083116104bf57829003601f168201915b505050505095508060050180546104f290611b5a565b80601f016020809104026020016040519081016040528092919081815260200182805461051e90611b5a565b801561056b5780601f106105405761010080835404028352916020019161056b565b820191906000526020600020905b81548152906001019060200180831161054e57829003601f168201915b5050505050945080600601805461058190611b5a565b80601f01602080910402602001604051908101604052809291908181526020018280546105ad90611b5a565b80156105fa5780601f106105cf576101008083540402835291602001916105fa565b820191906000526020600020905b8154815290600101906020018083116105dd57829003601f168201915b5050506004909301549a9c999b50979996989597509560ff16949350505050565b61062361158c565b806000036106735760405162461bcd60e51b815260206004820152601a60248201527f4c697374696e67204665652043616e6e6f74206265207a65726f0000000000006044820152606401610428565b600355565b82600a816040516106899190611b8e565b9081526040519081900360200190205460ff16156106dd5760405162461bcd60e51b8152602060048201526011602482015270486f74656c204e616d652045786973747360781b6044820152606401610428565b600081511161072e5760405162461bcd60e51b815260206004820152601d60248201527f506c6561736520737065636966792074686520686f74656c206e616d650000006044820152606401610428565b6107366115e6565b3361074057600080fd5b60035434146107875760405162461bcd60e51b8152602060048201526013602482015272496e76616c6964204c697374696e672046656560681b6044820152606401610428565b60008351116107e45760405162461bcd60e51b8152602060048201526024808201527f506c6561736520737065636966792074686520686f74656c20646573637269706044820152633a34b7b760e11b6064820152608401610428565b60008251116108465760405162461bcd60e51b815260206004820152602860248201527f506c65617365207370656369667920746865206c6f636174696f6e206f6620746044820152671a19481a1bdd195b60c21b6064820152608401610428565b610854600480546001019055565b600061085f60045490565b90506040518061010001604052808281526020016000815260200142815260200186815260200160006006811115610899576108996116f8565b815260208082018790526040808301879052336060938401526000858152600783528190208451815591840151600183015583015160028201559082015160038201906108e69082611bf9565b50608082015160048201805460ff1916600183600681111561090a5761090a6116f8565b021790555060a082015160058201906109239082611bf9565b5060c082015160068201906109389082611bf9565b5060e09190910151600791820180546001600160a01b0319166001600160a01b0390921691909117905560008281526020919091526040812060068054600181810183559190935281547ff652222313e28459528d920b65115c16c04f3efc82aaedc97be59f3f377c0d3f6008909402938401908155908201547ff652222313e28459528d920b65115c16c04f3efc82aaedc97be59f3f377c0d4084015560028201547ff652222313e28459528d920b65115c16c04f3efc82aaedc97be59f3f377c0d4184015590917ff652222313e28459528d920b65115c16c04f3efc82aaedc97be59f3f377c0d4201610a306003840182611cb9565b50600482810154908201805460ff9092169160ff19166001836006811115610a5a57610a5a6116f8565b0217905550600581810190610a7190840182611cb9565b50600681810190610a8490840182611cb9565b5060079182015490820180546001600160a01b0319166001600160a01b0390921691909117905560008281526020918252604080822033835260089093529020815481556001828101549082015560028083015490820155600380820190610aee90840182611cb9565b50600482810154908201805460ff9092169160ff19166001836006811115610b1857610b186116f8565b0217905550600581810190610b2f90840182611cb9565b50600681810190610b4290840182611cb9565b50600791820154910180546001600160a01b0319166001600160a01b039092169190911790556002805460019190600090610b7e908490611d94565b909155505060008181526009602052604090819020805460ff191660019081179091559051600a90610bb1908890611b8e565b908152604051908190036020019020805491151560ff19909216919091179055610be36000546001600160a01b031690565b6001600160a01b03166108fc349081150290604051600060405180830381858888f19350505050158015610c1b573d6000803e3d6000fd5b5050610c2660018055565b50505050565b600860205260009081526040902080546001820154600283015460038401805493949293919291610c5c90611b5a565b80601f0160208091040260200160405190810160405280929190818152602001828054610c8890611b5a565b8015610cd55780601f10610caa57610100808354040283529160200191610cd5565b820191906000526020600020905b815481529060010190602001808311610cb857829003601f168201915b5050506004840154600585018054949560ff909216949193509150610cf990611b5a565b80601f0160208091040260200160405190810160405280929190818152602001828054610d2590611b5a565b8015610d725780601f10610d4757610100808354040283529160200191610d72565b820191906000526020600020905b815481529060010190602001808311610d5557829003601f168201915b505050505090806006018054610d8790611b5a565b80601f0160208091040260200160405190810160405280929190818152602001828054610db390611b5a565b8015610e005780601f10610dd557610100808354040283529160200191610e00565b820191906000526020600020905b815481529060010190602001808311610de357829003601f168201915b505050600790930154919250506001600160a01b031688565b600081815260096020526040902054819060ff161515600114610e4e5760405162461bcd60e51b815260040161042890611b2c565b6000828152600760208190526040909120015482906001600160a01b03163314610eba5760405162461bcd60e51b815260206004820152601e60248201527f596f7520446f204e6f74204f776e205468697320486f74656c204974656d00006044820152606401610428565b6001600160a01b0384163303610f1d5760405162461bcd60e51b815260206004820152602260248201527f596f75206172652074686520726967687466756c206f776e657220616c726561604482015261647960f01b6064820152608401610428565b6001600160a01b038416610f7e5760405162461bcd60e51b815260206004820152602260248201527f506c65617365207370656369667920612076616c696420455448206164647265604482015261737360f01b6064820152608401610428565b505060009081526007602081905260409091200180546001600160a01b0319166001600160a01b0392909216919091179055565b600081815260096020526040812054829060ff161515600114610fe75760405162461bcd60e51b815260040161042890611b2c565b60008381526007602052604090205491505b50919050565b600081815260096020526040902054606090829060ff1615156001146110375760405162461bcd60e51b815260040161042890611b2c565b6000838152600760205260409020600301805461105390611b5a565b80601f016020809104026020016040519081016040528092919081815260200182805461107f90611b5a565b80156110cc5780601f106110a1576101008083540402835291602001916110cc565b820191906000526020600020905b8154815290600101906020018083116110af57829003601f168201915b5050505050915050919050565b600082815260096020526040902054829060ff16151560011461110e5760405162461bcd60e51b815260040161042890611b2c565b6000838152600760208190526040909120015483906001600160a01b0316331461117a5760405162461bcd60e51b815260206004820152601e60248201527f596f7520446f204e6f74204f776e205468697320486f74656c204974656d00006044820152606401610428565b60008481526007602052604081209084600681111561119b5761119b6116f8565b036111a8576111a8611db5565b600481015460ff1660068111156111c1576111c16116f8565b8460068111156111d3576111d36116f8565b036111e0576111e0611db5565b60048101805485919060ff19166001836006811115611201576112016116f8565b02179055505050505050565b61121561158c565b61121f600061163f565b565b600760205260009081526040902080546001820154600283015460038401805493949293919291610c5c90611b5a565b60606006805480602002602001604051908101604052809291908181526020016000905b828210156114c55783829060005260206000209060080201604051806101000160405290816000820154815260200160018201548152602001600282015481526020016003820180546112c790611b5a565b80601f01602080910402602001604051908101604052809291908181526020018280546112f390611b5a565b80156113405780601f1061131557610100808354040283529160200191611340565b820191906000526020600020905b81548152906001019060200180831161132357829003601f168201915b5050509183525050600482015460209091019060ff166006811115611367576113676116f8565b6006811115611378576113786116f8565b815260200160058201805461138c90611b5a565b80601f01602080910402602001604051908101604052809291908181526020018280546113b890611b5a565b80156114055780601f106113da57610100808354040283529160200191611405565b820191906000526020600020905b8154815290600101906020018083116113e857829003601f168201915b5050505050815260200160068201805461141e90611b5a565b80601f016020809104026020016040519081016040528092919081815260200182805461144a90611b5a565b80156114975780601f1061146c57610100808354040283529160200191611497565b820191906000526020600020905b81548152906001019060200180831161147a57829003601f168201915b5050509183525050600791909101546001600160a01b03166020918201529082526001929092019101611275565b50505050905090565b600681815481106114de57600080fd5b9060005260206000209060080201600091509050806000015490806001015490806002015490806003018054610c5c90611b5a565b61151b61158c565b6001600160a01b0381166115805760405162461bcd60e51b815260206004820152602660248201527f4f776e61626c653a206e6577206f776e657220697320746865207a65726f206160448201526564647265737360d01b6064820152608401610428565b6115898161163f565b50565b6000546001600160a01b0316331461121f5760405162461bcd60e51b815260206004820181905260248201527f4f776e61626c653a2063616c6c6572206973206e6f7420746865206f776e65726044820152606401610428565b6002600154036116385760405162461bcd60e51b815260206004820152601f60248201527f5265656e7472616e637947756172643a207265656e7472616e742063616c6c006044820152606401610428565b6002600155565b600080546001600160a01b038381166001600160a01b0319831681178455604051919092169283917f8be0079c531659141344cd1fd0a4f28419497f9722a3daafe3b4186f6b6457e09190a35050565b6000602082840312156116a157600080fd5b5035919050565b60005b838110156116c35781810151838201526020016116ab565b50506000910152565b600081518084526116e48160208601602086016116a8565b601f01601f19169290920160200192915050565b634e487b7160e01b600052602160045260246000fd5b6007811061172c57634e487b7160e01b600052602160045260246000fd5b9052565b87815286602082015285604082015260e06060820152600061175560e08301876116cc565b828103608084015261176781876116cc565b905082810360a084015261177b81866116cc565b91505061178b60c083018461170e565b98975050505050505050565b602081016117a5828461170e565b92915050565b634e487b7160e01b600052604160045260246000fd5b600082601f8301126117d257600080fd5b813567ffffffffffffffff808211156117ed576117ed6117ab565b604051601f8301601f19908116603f01168101908282118183101715611815576118156117ab565b8160405283815286602085880101111561182e57600080fd5b836020870160208301376000602085830101528094505050505092915050565b60008060006060848603121561186357600080fd5b833567ffffffffffffffff8082111561187b57600080fd5b611887878388016117c1565b9450602086013591508082111561189d57600080fd5b6118a9878388016117c1565b935060408601359150808211156118bf57600080fd5b506118cc868287016117c1565b9150509250925092565b6001600160a01b038116811461158957600080fd5b6000602082840312156118fd57600080fd5b8135611908816118d6565b9392505050565b60006101008a8352896020840152886040840152806060840152611935818401896116cc565b9050611944608084018861170e565b82810360a084015261195681876116cc565b905082810360c084015261196a81866116cc565b91505060018060a01b03831660e08301529998505050505050505050565b6000806040838503121561199b57600080fd5b82356119a6816118d6565b946020939093013593505050565b6000602082840312156119c657600080fd5b813567ffffffffffffffff8111156119dd57600080fd5b6119e9848285016117c1565b949350505050565b60208152600061190860208301846116cc565b60008060408385031215611a1757600080fd5b82359150602083013560078110611a2d57600080fd5b809150509250929050565b60006020808301818452808551808352604092508286019150828160051b87010184880160005b83811015611b1e57603f19898403018552815161010081518552888201518986015287820151888601526060808301518282880152611aa0838801826116cc565b92505050608080830151611ab68288018261170e565b505060a08083015186830382880152611acf83826116cc565b9250505060c08083015186830382880152611aea83826116cc565b9250505060e0808301519250611b0a818701846001600160a01b03169052565b509588019593505090860190600101611a5f565b509098975050505050505050565b602080825260149082015273121bdd195b08111bd95cc8139bdd08115e1a5cdd60621b604082015260600190565b600181811c90821680611b6e57607f821691505b602082108103610ff957634e487b7160e01b600052602260045260246000fd5b60008251611ba08184602087016116a8565b9190910192915050565b601f821115611bf457600081815260208120601f850160051c81016020861015611bd15750805b601f850160051c820191505b81811015611bf057828155600101611bdd565b5050505b505050565b815167ffffffffffffffff811115611c1357611c136117ab565b611c2781611c218454611b5a565b84611baa565b602080601f831160018114611c5c5760008415611c445750858301515b600019600386901b1c1916600185901b178555611bf0565b600085815260208120601f198616915b82811015611c8b57888601518255948401946001909101908401611c6c565b5085821015611ca95787850151600019600388901b60f8161c191681555b5050505050600190811b01905550565b818103611cc4575050565b611cce8254611b5a565b67ffffffffffffffff811115611ce657611ce66117ab565b611cf481611c218454611b5a565b6000601f821160018114611d285760008315611d105750848201545b600019600385901b1c1916600184901b178455611d8d565b600085815260209020601f19841690600086815260209020845b83811015611d625782860154825560019586019590910190602001611d42565b5085831015611d805781850154600019600388901b60f8161c191681555b50505060018360011b0184555b5050505050565b808201808211156117a557634e487b7160e01b600052601160045260246000fd5b634e487b7160e01b600052600160045260246000fdfea26469706673582212202923afe8abe535f8c3a9bfb9aa7e08cf83a1c14ffc90cd50f2431052f736f33564736f6c63430008110033",
  "immutableReferences": {},
  "source": "// SPDX-License-Identifier: MIT\npragma solidity ^0.8.0;\n//import '@openzeppelin/contracts/utils/math/SafeMath.sol';\nimport '@openzeppelin/contracts/security/ReentrancyGuard.sol';\nimport '@openzeppelin/contracts/access/Ownable.sol';\nimport '@openzeppelin/contracts/utils/Counters.sol';\nimport './HotelBookingInterface.sol';\n\n  /**\n   * @title Hotel Booking \n   * @dev A simple Smart Contract for hotel management\n   * @author Dickens Odera dickensodera9@gmail.com\n  **/\n\ncontract Hotel is Ownable, HotelBookingInterface, ReentrancyGuard {\n  //using SafeMath for uint256;\n  using Counters for Counters.Counter;\n\n  uint public totalHotels = 0; //the total number of the hotels\n  uint public hotelListingFee = 0.00000043 ether; //200 Ksh at the time of writing this smart contract\n  Counters.Counter private _hotelIds; //hotel id to be inrecemented when a new hotel is created\n\n  enum HOTEL_CATEGORY {CHAIN_HOTEL, MOTEL, RESORT, INN, ALL_SUITS, BOUTIGUE, EXTENDED_STAY} // hotel types\n  HOTEL_CATEGORY public hotelCategory;\n  HOTEL_CATEGORY constant DEFAULT_HOTEL_TYPE = HOTEL_CATEGORY.CHAIN_HOTEL; //default hotel type as it is the most common around the world\n\n  //Group hotel data together in a Struct\n  struct HotelItem{\n    uint id;\n    uint totalRooms;\n    uint creationDate;\n    string name;\n    HOTEL_CATEGORY hotelCategory;\n    string description;\n    string locationAddress;\n    address payable user;\n  }\n\n  HotelItem[] public hotelItems; //hotels array of the Hotel struct above\n  mapping(uint => HotelItem) public hotelItemId;\n  mapping(address => HotelItem) public hotelOwner; //the owner of this hotel\n  mapping(uint => bool) public existingHotelItemId;\n  mapping(string => bool) public existingHotelItemName;\n\n  //events\n//   event HotelCreated(uint date, address indexed causer, uint indexed id);\n//   event HotelCategoryChanged(address indexed causer, uint date, HOTEL_CATEGORY indexed newCategory);\n//   event HotelOwnerChanged(address indexed causer, address indexed newOwner, uint date);\n//   event HotelListingFeeChanged(address indexed user, uint indexed date,uint indexed fee);\n\n  constructor() {\n\n  }\n\n  //ensure that the hotel exists in the blockchain before performing related transactions\n  modifier hotelExists(uint _hotelId){\n      require(existingHotelItemId[_hotelId] == true,\"Hotel Does Not Exist\");\n      _;\n  }\n\n  //to avoid duplicate hotel names in the contract\n  modifier hotelNameExists(string memory _name){\n     require(existingHotelItemName[_name] == false,\"Hotel Name Exists\");\n     require(bytes(_name).length > 0,\"Please specify the hotel name\");\n     _;\n  }\n\n  //ensure the transactionsender owns this hotel before the transaction\n  modifier ownsHotel(uint _hotelId){\n      require(msg.sender == hotelItemId[_hotelId].user,\"You Do Not Own This Hotel Item\");\n      _;\n  }\n\n  //check that this user address has hotel before adding a room\n  modifier hasListedHotel(uint _hotelId){\n      bool isListed = false;\n        if(msg.sender == hotelItemId[_hotelId].user){\n            isListed = true;\n        }\n      require(isListed == true,\"Please List A Hotel Before Adding A Room\");\n      _;\n  }\n\n  function setListingFee(uint _fee) public onlyOwner{\n    require(_fee != 0,\"Listing Fee Cannot be zero\");\n    hotelListingFee = _fee;\n    //emit HotelListingFeeChanged(msg.sender,block.timestamp, _fee);\n  }\n\n  // function setImageHash(uint hotelId, string memory imageHash) public{\n  //   require(existingHotelItemId[hotelId] == true,\"Hotel Does Not Exist\");\n  //   hotelItemId[hotelId].imageHash = imageHash;\n  // }\n\n  // function getImageHash(uint hotelId) public view returns(string memory _imageHash){\n  //   require(existingHotelItemId[hotelId] == true,\"Hotel Does Not Exist\");\n  //   return hotelItemId[hotelId].imageHash;\n  // }\n\n  function addHotel(string memory _name,string memory _description, string memory _location) public hotelNameExists(_name) nonReentrant payable{\n    require(msg.sender != address(0));\n    require(msg.value == hotelListingFee,\"Invalid Listing Fee\");\n    require(bytes(_description).length > 0,\"Please specify the hotel description\");\n    require(bytes(_location).length > 0,\"Please specify the location of the hotel\");\n    _hotelIds.increment();\n    uint currentHotelId = _hotelIds.current();\n    hotelItemId[currentHotelId] = HotelItem(currentHotelId,0, block.timestamp, _name, DEFAULT_HOTEL_TYPE,_description, _location, payable(msg.sender));\n    hotelItems.push(hotelItemId[currentHotelId]);\n    hotelOwner[msg.sender] = hotelItemId[currentHotelId];\n    totalHotels += 1;\n    existingHotelItemId[currentHotelId] = true;\n    existingHotelItemName[_name] = true;\n    payable(owner()).transfer(msg.value);\n    //emit HotelCreated(block.timestamp, msg.sender, currentHotelId);\n  }\n\n  function listAllHotels() public view returns(HotelItem[] memory){\n      return hotelItems;\n  }\n\n  function getHotelBioData(uint _hotelId) public view hotelExists(_hotelId) returns(\n      uint _id,\n      uint _totalRooms,\n      uint _date,\n      string memory _name,\n      string memory _description,\n      string memory _location,\n      HOTEL_CATEGORY _category\n      ){\n    HotelItem storage hotelItem = hotelItemId[_hotelId];\n    _id = hotelItem.id;\n    _totalRooms = hotelItem.totalRooms;\n    _date = hotelItem.creationDate;\n    _name = hotelItem.name;\n    _description = hotelItem.description;\n    _location = hotelItem.locationAddress;\n    _category = hotelItem.hotelCategory;\n  }\n\n  function changeHotelCategory(uint _hotelId, HOTEL_CATEGORY _category) public hotelExists(_hotelId) ownsHotel(_hotelId) {\n     HotelItem storage hotelItem = hotelItemId[_hotelId];\n     assert(_category != DEFAULT_HOTEL_TYPE);\n     assert(_category != hotelItem.hotelCategory);\n     hotelItem.hotelCategory = _category;\n     //emit HotelCategoryChanged(msg.sender, block.timestamp, _category);\n  }\n\n  function getName(uint _hotelId) external virtual view override hotelExists(_hotelId) returns(string memory){\n      return hotelItemId[_hotelId].name;\n  }\n\n  function getId(uint _hotelId) external virtual view override hotelExists(_hotelId) returns(uint){\n      return hotelItemId[_hotelId].id;\n  }\n\n  function changeHotelOwner(address payable _newOwner, uint _hotelId) public hotelExists(_hotelId) ownsHotel(_hotelId){\n      require(msg.sender != _newOwner,\"You are the rightful owner already\");\n      require(_newOwner != address(0),\"Please specify a valid ETH address\");\n      hotelItemId[_hotelId].user = _newOwner;\n      //emit HotelOwnerChanged(msg.sender, _newOwner, block.timestamp);\n  }\n}\n",
  "sourcePath": "C:\\Users\\hamza\\Downloads\\Hotel-Booking-Dapp-master\\Hotel-Booking-Dapp-master\\contracts\\Hotel.sol",
  "compiler": {
    "name": "solc",
    "version": "0.8.17+commit.8df45f5f.Emscripten.clang"
  },
  "schemaVersion": "3.4.10",
  "updatedAt": "2022-12-05T23:00:59.731Z",
  "networkType": "ethereum",
  "devdoc": {
    "author": "Dickens Odera dickensodera9@gmail.com*",
    "details": "A simple Smart Contract for hotel management",
    "kind": "dev",
    "methods": {
      "owner()": {
        "details": "Returns the address of the current owner."
      },
      "renounceOwnership()": {
        "details": "Leaves the contract without owner. It will not be possible to call `onlyOwner` functions anymore. Can only be called by the current owner. NOTE: Renouncing ownership will leave the contract without an owner, thereby removing any functionality that is only available to the owner."
      },
      "transferOwnership(address)": {
        "details": "Transfers ownership of the contract to a new account (`newOwner`). Can only be called by the current owner."
      }
    },
    "title": "Hotel Booking ",
    "version": 1
  },
  "userdoc": {
    "kind": "user",
    "methods": {},
    "version": 1
  }
}