{
  "contractName": "Room",
  "abi": [
    {
      "inputs": [],
      "stateMutability": "nonpayable",
      "type": "constructor"
    },
    {
      "anonymous": false,
      "inputs": [
        {
          "indexed": true,
          "internalType": "address",
          "name": "previousOwner",
          "type": "address"
        },
        {
          "indexed": true,
          "internalType": "address",
          "name": "newOwner",
          "type": "address"
        }
      ],
      "name": "OwnershipTransferred",
      "type": "event"
    },
    {
      "inputs": [
        {
          "internalType": "string",
          "name": "_name",
          "type": "string"
        },
        {
          "internalType": "string",
          "name": "_description",
          "type": "string"
        },
        {
          "internalType": "string",
          "name": "_location",
          "type": "string"
        }
      ],
      "name": "addHotel",
      "outputs": [],
      "stateMutability": "payable",
      "type": "function",
      "payable": true
    },
    {
      "inputs": [
        {
          "internalType": "uint256",
          "name": "_hotelId",
          "type": "uint256"
        },
        {
          "internalType": "enum Hotel.HOTEL_CATEGORY",
          "name": "_category",
          "type": "uint8"
        }
      ],
      "name": "changeHotelCategory",
      "outputs": [],
      "stateMutability": "nonpayable",
      "type": "function"
    },
    {
      "inputs": [
        {
          "internalType": "address payable",
          "name": "_newOwner",
          "type": "address"
        },
        {
          "internalType": "uint256",
          "name": "_hotelId",
          "type": "uint256"
        }
      ],
      "name": "changeHotelOwner",
      "outputs": [],
      "stateMutability": "nonpayable",
      "type": "function"
    },
    {
      "inputs": [
        {
          "internalType": "uint256",
          "name": "",
          "type": "uint256"
        }
      ],
      "name": "existingHotelItemId",
      "outputs": [
        {
          "internalType": "bool",
          "name": "",
          "type": "bool"
        }
      ],
      "stateMutability": "view",
      "type": "function",
      "constant": true
    },
    {
      "inputs": [
        {
          "internalType": "string",
          "name": "",
          "type": "string"
        }
      ],
      "name": "existingHotelItemName",
      "outputs": [
        {
          "internalType": "bool",
          "name": "",
          "type": "bool"
        }
      ],
      "stateMutability": "view",
      "type": "function",
      "constant": true
    },
    {
      "inputs": [
        {
          "internalType": "uint256",
          "name": "",
          "type": "uint256"
        }
      ],
      "name": "existingRoomItem",
      "outputs": [
        {
          "internalType": "bool",
          "name": "",
          "type": "bool"
        }
      ],
      "stateMutability": "view",
      "type": "function",
      "constant": true
    },
    {
      "inputs": [
        {
          "internalType": "string",
          "name": "",
          "type": "string"
        }
      ],
      "name": "existingRoomItemName",
      "outputs": [
        {
          "internalType": "bool",
          "name": "",
          "type": "bool"
        }
      ],
      "stateMutability": "view",
      "type": "function",
      "constant": true
    },
    {
      "inputs": [
        {
          "internalType": "uint256",
          "name": "_hotelId",
          "type": "uint256"
        }
      ],
      "name": "getHotelBioData",
      "outputs": [
        {
          "internalType": "uint256",
          "name": "_id",
          "type": "uint256"
        },
        {
          "internalType": "uint256",
          "name": "_totalRooms",
          "type": "uint256"
        },
        {
          "internalType": "uint256",
          "name": "_date",
          "type": "uint256"
        },
        {
          "internalType": "string",
          "name": "_name",
          "type": "string"
        },
        {
          "internalType": "string",
          "name": "_description",
          "type": "string"
        },
        {
          "internalType": "string",
          "name": "_location",
          "type": "string"
        },
        {
          "internalType": "enum Hotel.HOTEL_CATEGORY",
          "name": "_category",
          "type": "uint8"
        }
      ],
      "stateMutability": "view",
      "type": "function",
      "constant": true
    },
    {
      "inputs": [],
      "name": "hotelCategory",
      "outputs": [
        {
          "internalType": "enum Hotel.HOTEL_CATEGORY",
          "name": "",
          "type": "uint8"
        }
      ],
      "stateMutability": "view",
      "type": "function",
      "constant": true
    },
    {
      "inputs": [
        {
          "internalType": "uint256",
          "name": "",
          "type": "uint256"
        }
      ],
      "name": "hotelItemId",
      "outputs": [
        {
          "internalType": "uint256",
          "name": "id",
          "type": "uint256"
        },
        {
          "internalType": "uint256",
          "name": "totalRooms",
          "type": "uint256"
        },
        {
          "internalType": "uint256",
          "name": "creationDate",
          "type": "uint256"
        },
        {
          "internalType": "string",
          "name": "name",
          "type": "string"
        },
        {
          "internalType": "enum Hotel.HOTEL_CATEGORY",
          "name": "hotelCategory",
          "type": "uint8"
        },
        {
          "internalType": "string",
          "name": "description",
          "type": "string"
        },
        {
          "internalType": "string",
          "name": "locationAddress",
          "type": "string"
        },
        {
          "internalType": "address payable",
          "name": "user",
          "type": "address"
        }
      ],
      "stateMutability": "view",
      "type": "function",
      "constant": true
    },
    {
      "inputs": [
        {
          "internalType": "uint256",
          "name": "",
          "type": "uint256"
        }
      ],
      "name": "hotelItems",
      "outputs": [
        {
          "internalType": "uint256",
          "name": "id",
          "type": "uint256"
        },
        {
          "internalType": "uint256",
          "name": "totalRooms",
          "type": "uint256"
        },
        {
          "internalType": "uint256",
          "name": "creationDate",
          "type": "uint256"
        },
        {
          "internalType": "string",
          "name": "name",
          "type": "string"
        },
        {
          "internalType": "enum Hotel.HOTEL_CATEGORY",
          "name": "hotelCategory",
          "type": "uint8"
        },
        {
          "internalType": "string",
          "name": "description",
          "type": "string"
        },
        {
          "internalType": "string",
          "name": "locationAddress",
          "type": "string"
        },
        {
          "internalType": "address payable",
          "name": "user",
          "type": "address"
        }
      ],
      "stateMutability": "view",
      "type": "function",
      "constant": true
    },
    {
      "inputs": [],
      "name": "hotelListingFee",
      "outputs": [
        {
          "internalType": "uint256",
          "name": "",
          "type": "uint256"
        }
      ],
      "stateMutability": "view",
      "type": "function",
      "constant": true
    },
    {
      "inputs": [
        {
          "internalType": "address",
          "name": "",
          "type": "address"
        }
      ],
      "name": "hotelOwner",
      "outputs": [
        {
          "internalType": "uint256",
          "name": "id",
          "type": "uint256"
        },
        {
          "internalType": "uint256",
          "name": "totalRooms",
          "type": "uint256"
        },
        {
          "internalType": "uint256",
          "name": "creationDate",
          "type": "uint256"
        },
        {
          "internalType": "string",
          "name": "name",
          "type": "string"
        },
        {
          "internalType": "enum Hotel.HOTEL_CATEGORY",
          "name": "hotelCategory",
          "type": "uint8"
        },
        {
          "internalType": "string",
          "name": "description",
          "type": "string"
        },
        {
          "internalType": "string",
          "name": "locationAddress",
          "type": "string"
        },
        {
          "internalType": "address payable",
          "name": "user",
          "type": "address"
        }
      ],
      "stateMutability": "view",
      "type": "function",
      "constant": true
    },
    {
      "inputs": [],
      "name": "listAllHotels",
      "outputs": [
        {
          "components": [
            {
              "internalType": "uint256",
              "name": "id",
              "type": "uint256"
            },
            {
              "internalType": "uint256",
              "name": "totalRooms",
              "type": "uint256"
            },
            {
              "internalType": "uint256",
              "name": "creationDate",
              "type": "uint256"
            },
            {
              "internalType": "string",
              "name": "name",
              "type": "string"
            },
            {
              "internalType": "enum Hotel.HOTEL_CATEGORY",
              "name": "hotelCategory",
              "type": "uint8"
            },
            {
              "internalType": "string",
              "name": "description",
              "type": "string"
            },
            {
              "internalType": "string",
              "name": "locationAddress",
              "type": "string"
            },
            {
              "internalType": "address payable",
              "name": "user",
              "type": "address"
            }
          ],
          "internalType": "struct Hotel.HotelItem[]",
          "name": "",
          "type": "tuple[]"
        }
      ],
      "stateMutability": "view",
      "type": "function",
      "constant": true
    },
    {
      "inputs": [],
      "name": "owner",
      "outputs": [
        {
          "internalType": "address",
          "name": "",
          "type": "address"
        }
      ],
      "stateMutability": "view",
      "type": "function",
      "constant": true
    },
    {
      "inputs": [],
      "name": "renounceOwnership",
      "outputs": [],
      "stateMutability": "nonpayable",
      "type": "function"
    },
    {
      "inputs": [
        {
          "internalType": "uint256",
          "name": "",
          "type": "uint256"
        }
      ],
      "name": "roomItemId",
      "outputs": [
        {
          "internalType": "uint256",
          "name": "id",
          "type": "uint256"
        },
        {
          "internalType": "uint256",
          "name": "totalBeds",
          "type": "uint256"
        },
        {
          "internalType": "uint256",
          "name": "hotelId",
          "type": "uint256"
        },
        {
          "internalType": "uint256",
          "name": "pricePerNight",
          "type": "uint256"
        },
        {
          "internalType": "uint256",
          "name": "number",
          "type": "uint256"
        },
        {
          "internalType": "bool",
          "name": "isBooked",
          "type": "bool"
        },
        {
          "internalType": "address payable",
          "name": "user",
          "type": "address"
        },
        {
          "internalType": "string",
          "name": "name",
          "type": "string"
        },
        {
          "internalType": "string",
          "name": "description",
          "type": "string"
        }
      ],
      "stateMutability": "view",
      "type": "function",
      "constant": true
    },
    {
      "inputs": [
        {
          "internalType": "address",
          "name": "",
          "type": "address"
        }
      ],
      "name": "roomOwner",
      "outputs": [
        {
          "internalType": "uint256",
          "name": "id",
          "type": "uint256"
        },
        {
          "internalType": "uint256",
          "name": "totalBeds",
          "type": "uint256"
        },
        {
          "internalType": "uint256",
          "name": "hotelId",
          "type": "uint256"
        },
        {
          "internalType": "uint256",
          "name": "pricePerNight",
          "type": "uint256"
        },
        {
          "internalType": "uint256",
          "name": "number",
          "type": "uint256"
        },
        {
          "internalType": "bool",
          "name": "isBooked",
          "type": "bool"
        },
        {
          "internalType": "address payable",
          "name": "user",
          "type": "address"
        },
        {
          "internalType": "string",
          "name": "name",
          "type": "string"
        },
        {
          "internalType": "string",
          "name": "description",
          "type": "string"
        }
      ],
      "stateMutability": "view",
      "type": "function",
      "constant": true
    },
    {
      "inputs": [
        {
          "internalType": "uint256",
          "name": "",
          "type": "uint256"
        }
      ],
      "name": "roomTenant",
      "outputs": [
        {
          "internalType": "address",
          "name": "",
          "type": "address"
        }
      ],
      "stateMutability": "view",
      "type": "function",
      "constant": true
    },
    {
      "inputs": [
        {
          "internalType": "uint256",
          "name": "",
          "type": "uint256"
        }
      ],
      "name": "rooms",
      "outputs": [
        {
          "internalType": "uint256",
          "name": "id",
          "type": "uint256"
        },
        {
          "internalType": "uint256",
          "name": "totalBeds",
          "type": "uint256"
        },
        {
          "internalType": "uint256",
          "name": "hotelId",
          "type": "uint256"
        },
        {
          "internalType": "uint256",
          "name": "pricePerNight",
          "type": "uint256"
        },
        {
          "internalType": "uint256",
          "name": "number",
          "type": "uint256"
        },
        {
          "internalType": "bool",
          "name": "isBooked",
          "type": "bool"
        },
        {
          "internalType": "address payable",
          "name": "user",
          "type": "address"
        },
        {
          "internalType": "string",
          "name": "name",
          "type": "string"
        },
        {
          "internalType": "string",
          "name": "description",
          "type": "string"
        }
      ],
      "stateMutability": "view",
      "type": "function",
      "constant": true
    },
    {
      "inputs": [
        {
          "internalType": "uint256",
          "name": "_fee",
          "type": "uint256"
        }
      ],
      "name": "setListingFee",
      "outputs": [],
      "stateMutability": "nonpayable",
      "type": "function"
    },
    {
      "inputs": [],
      "name": "totalHotels",
      "outputs": [
        {
          "internalType": "uint256",
          "name": "",
          "type": "uint256"
        }
      ],
      "stateMutability": "view",
      "type": "function",
      "constant": true
    },
    {
      "inputs": [],
      "name": "totalRooms",
      "outputs": [
        {
          "internalType": "uint256",
          "name": "",
          "type": "uint256"
        }
      ],
      "stateMutability": "view",
      "type": "function",
      "constant": true
    },
    {
      "inputs": [
        {
          "internalType": "address",
          "name": "newOwner",
          "type": "address"
        }
      ],
      "name": "transferOwnership",
      "outputs": [],
      "stateMutability": "nonpayable",
      "type": "function"
    },
    {
      "inputs": [
        {
          "internalType": "uint256",
          "name": "_hotelId",
          "type": "uint256"
        },
        {
          "internalType": "uint256",
          "name": "_totalBeds",
          "type": "uint256"
        },
        {
          "internalType": "uint256",
          "name": "_pricePerNight",
          "type": "uint256"
        },
        {
          "internalType": "uint256",
          "name": "_number",
          "type": "uint256"
        },
        {
          "internalType": "string",
          "name": "_name",
          "type": "string"
        },
        {
          "internalType": "string",
          "name": "_description",
          "type": "string"
        }
      ],
      "name": "addRoom",
      "outputs": [],
      "stateMutability": "nonpayable",
      "type": "function"
    },
    {
      "inputs": [
        {
          "internalType": "uint256",
          "name": "_roomId",
          "type": "uint256"
        }
      ],
      "name": "getRoomBioData",
      "outputs": [
        {
          "internalType": "uint256",
          "name": "_id",
          "type": "uint256"
        },
        {
          "internalType": "uint256",
          "name": "_numOfBeds",
          "type": "uint256"
        },
        {
          "internalType": "uint256",
          "name": "_hotelId",
          "type": "uint256"
        },
        {
          "internalType": "uint256",
          "name": "_pricePerNight",
          "type": "uint256"
        },
        {
          "internalType": "uint256",
          "name": "_number",
          "type": "uint256"
        },
        {
          "internalType": "bool",
          "name": "_isBooked",
          "type": "bool"
        },
        {
          "internalType": "address",
          "name": "_user",
          "type": "address"
        },
        {
          "internalType": "string",
          "name": "_name",
          "type": "string"
        },
        {
          "internalType": "string",
          "name": "_description",
          "type": "string"
        }
      ],
      "stateMutability": "view",
      "type": "function",
      "constant": true
    },
    {
      "inputs": [
        {
          "internalType": "uint256",
          "name": "_roomId",
          "type": "uint256"
        }
      ],
      "name": "getName",
      "outputs": [
        {
          "internalType": "string",
          "name": "",
          "type": "string"
        }
      ],
      "stateMutability": "view",
      "type": "function",
      "constant": true
    },
    {
      "inputs": [
        {
          "internalType": "uint256",
          "name": "_roomId",
          "type": "uint256"
        }
      ],
      "name": "getId",
      "outputs": [
        {
          "internalType": "uint256",
          "name": "",
          "type": "uint256"
        }
      ],
      "stateMutability": "view",
      "type": "function",
      "constant": true
    },
    {
      "inputs": [
        {
          "internalType": "uint256",
          "name": "_roomId",
          "type": "uint256"
        },
        {
          "internalType": "uint256",
          "name": "_price",
          "type": "uint256"
        }
      ],
      "name": "setNightPrice",
      "outputs": [],
      "stateMutability": "nonpayable",
      "type": "function"
    },
    {
      "inputs": [],
      "name": "listRooms",
      "outputs": [
        {
          "components": [
            {
              "internalType": "uint256",
              "name": "id",
              "type": "uint256"
            },
            {
              "internalType": "uint256",
              "name": "totalBeds",
              "type": "uint256"
            },
            {
              "internalType": "uint256",
              "name": "hotelId",
              "type": "uint256"
            },
            {
              "internalType": "uint256",
              "name": "pricePerNight",
              "type": "uint256"
            },
            {
              "internalType": "uint256",
              "name": "number",
              "type": "uint256"
            },
            {
              "internalType": "bool",
              "name": "isBooked",
              "type": "bool"
            },
            {
              "internalType": "address payable",
              "name": "user",
              "type": "address"
            },
            {
              "internalType": "string",
              "name": "name",
              "type": "string"
            },
            {
              "internalType": "string",
              "name": "description",
              "type": "string"
            }
          ],
          "internalType": "struct Room.RoomItem[]",
          "name": "",
          "type": "tuple[]"
        }
      ],
      "stateMutability": "view",
      "type": "function",
      "constant": true
    }
  ],
  "bytecode": "0x6080604052600060025564641dff4c006003556000600b5534801561002357600080fd5b5061002d33610036565b60018055610086565b600080546001600160a01b038381166001600160a01b0319831681178455604051919092169283917f8be0079c531659141344cd1fd0a4f28419497f9722a3daafe3b4186f6b6457e09190a35050565b612e1480620000966000396000f3fe6080604052600436106101cd5760003560e01c8063715018a6116100f7578063af5537fa11610095578063c5a56e8211610064578063c5a56e82146105d4578063c89e4963146105f4578063cee9e07814610614578063f2fde38b1461064457600080fd5b8063af5537fa14610566578063b2afef821461057c578063bbc02ce21461059c578063c210c532146105b257600080fd5b80638da5cb5b116100d15780638da5cb5b146104f257806391aa8489146105105780639524a38e14610526578063958aa59b1461054657600080fd5b8063715018a61461045f57806374dbda051461047457806380865877146104a457600080fd5b8063307764971161016f5780634ee9a94d1161013e5780634ee9a94d146103b7578063545a153a146103d75780636b8ff5741461041257806370f3bfd81461043f57600080fd5b806330776497146103085780633716236e14610328578063387329f91461035c5780634dce717e1461037c57600080fd5b806310f70192116101ab57806310f701921461027c578063131dbd091461029e5780631459cb36146102c05780631bae0ac8146102d357600080fd5b80630aaecc35146101d25780630af272f7146102225780630fa0200d14610255575b600080fd5b3480156101de57600080fd5b5061020d6101ed366004612556565b805160208183018101805160128252928201919093012091525460ff1681565b60405190151581526020015b60405180910390f35b34801561022e57600080fd5b5061024261023d366004612593565b610664565b6040516102199796959493929190612634565b34801561026157600080fd5b5060055461026f9060ff1681565b604051610219919061269b565b34801561028857600080fd5b50610291610899565b60405161021991906126af565b3480156102aa57600080fd5b506102be6102b9366004612593565b610a76565b005b6102be6102ce36600461278e565b610ad3565b3480156102df57600080fd5b506102f36102ee366004612593565b611087565b60405161021999989796959493929190612816565b34801561031457600080fd5b506102f3610323366004612593565b611204565b34801561033457600080fd5b50610348610343366004612898565b61125e565b6040516102199897969594939291906128bc565b34801561036857600080fd5b506102be610377366004612935565b61144b565b34801561038857600080fd5b5061020d610397366004612556565b8051602081830181018051600a8252928201919093012091525460ff1681565b3480156103c357600080fd5b506102f36103d2366004612898565b6115e4565b3480156103e357600080fd5b506104046103f2366004612593565b60009081526010602052604090205490565b604051908152602001610219565b34801561041e57600080fd5b5061043261042d366004612593565b61163e565b6040516102199190612961565b34801561044b57600080fd5b506102be61045a366004612974565b6116e3565b34801561046b57600080fd5b506102be611817565b34801561048057600080fd5b5061020d61048f366004612593565b60096020526000908152604090205460ff1681565b3480156104b057600080fd5b506104da6104bf366004612593565b600f602052600090815260409020546001600160a01b031681565b6040516001600160a01b039091168152602001610219565b3480156104fe57600080fd5b506000546001600160a01b03166104da565b34801561051c57600080fd5b5061040460035481565b34801561053257600080fd5b50610348610541366004612593565b61182b565b34801561055257600080fd5b506102f3610561366004612593565b61185b565b34801561057257600080fd5b50610404600b5481565b34801561058857600080fd5b506102be6105973660046129a8565b611a5c565b3480156105a857600080fd5b5061040460025481565b3480156105be57600080fd5b506105c7611fb1565b6040516102199190612a31565b3480156105e057600080fd5b506102be6105ef366004612b17565b612225565b34801561060057600080fd5b5061034861060f366004612593565b6122f2565b34801561062057600080fd5b5061020d61062f366004612593565b60116020526000908152604090205460ff1681565b34801561065057600080fd5b506102be61065f366004612898565b612337565b60008181526009602052604081205481908190606090819081908490889060ff1615156001146106af5760405162461bcd60e51b81526004016106a690612b39565b60405180910390fd5b6000898152600760205260409020805460018201546002830154600384018054939c50919a509850906106e190612b67565b80601f016020809104026020016040519081016040528092919081815260200182805461070d90612b67565b801561075a5780601f1061072f5761010080835404028352916020019161075a565b820191906000526020600020905b81548152906001019060200180831161073d57829003601f168201915b5050505050955080600501805461077090612b67565b80601f016020809104026020016040519081016040528092919081815260200182805461079c90612b67565b80156107e95780601f106107be576101008083540402835291602001916107e9565b820191906000526020600020905b8154815290600101906020018083116107cc57829003601f168201915b505050505094508060060180546107ff90612b67565b80601f016020809104026020016040519081016040528092919081815260200182805461082b90612b67565b80156108785780601f1061084d57610100808354040283529160200191610878565b820191906000526020600020905b81548152906001019060200180831161085b57829003601f168201915b5050506004909301549a9c999b50979996989597509560ff16949350505050565b6060600d805480602002602001604051908101604052809291908181526020016000905b82821015610a6d576000848152602090819020604080516101208101825260088602909201805483526001810154938301939093526002830154908201526003820154606082015260048201546080820152600582015460ff8116151560a083015261010090046001600160a01b031660c082015260068201805491929160e08401919061094a90612b67565b80601f016020809104026020016040519081016040528092919081815260200182805461097690612b67565b80156109c35780601f10610998576101008083540402835291602001916109c3565b820191906000526020600020905b8154815290600101906020018083116109a657829003601f168201915b505050505081526020016007820180546109dc90612b67565b80601f0160208091040260200160405190810160405280929190818152602001828054610a0890612b67565b8015610a555780601f10610a2a57610100808354040283529160200191610a55565b820191906000526020600020905b815481529060010190602001808311610a3857829003601f168201915b505050505081525050815260200190600101906108bd565b50505050905090565b610a7e6123b0565b80600003610ace5760405162461bcd60e51b815260206004820152601a60248201527f4c697374696e67204665652043616e6e6f74206265207a65726f00000000000060448201526064016106a6565b600355565b82600a81604051610ae49190612ba1565b9081526040519081900360200190205460ff1615610b385760405162461bcd60e51b8152602060048201526011602482015270486f74656c204e616d652045786973747360781b60448201526064016106a6565b6000815111610b895760405162461bcd60e51b815260206004820152601d60248201527f506c6561736520737065636966792074686520686f74656c206e616d6500000060448201526064016106a6565b610b9161240a565b33610b9b57600080fd5b6003543414610be25760405162461bcd60e51b8152602060048201526013602482015272496e76616c6964204c697374696e672046656560681b60448201526064016106a6565b6000835111610c3f5760405162461bcd60e51b8152602060048201526024808201527f506c6561736520737065636966792074686520686f74656c20646573637269706044820152633a34b7b760e11b60648201526084016106a6565b6000825111610ca15760405162461bcd60e51b815260206004820152602860248201527f506c65617365207370656369667920746865206c6f636174696f6e206f6620746044820152671a19481a1bdd195b60c21b60648201526084016106a6565b610caf600480546001019055565b6000610cba60045490565b90506040518061010001604052808281526020016000815260200142815260200186815260200160006006811115610cf457610cf46125fc565b81526020808201879052604080830187905233606093840152600085815260078352819020845181559184015160018301558301516002820155908201516003820190610d419082612c0c565b50608082015160048201805460ff19166001836006811115610d6557610d656125fc565b021790555060a08201516005820190610d7e9082612c0c565b5060c08201516006820190610d939082612c0c565b5060e09190910151600791820180546001600160a01b0319166001600160a01b0390921691909117905560008281526020919091526040812060068054600181810183559190935281547ff652222313e28459528d920b65115c16c04f3efc82aaedc97be59f3f377c0d3f6008909402938401908155908201547ff652222313e28459528d920b65115c16c04f3efc82aaedc97be59f3f377c0d4084015560028201547ff652222313e28459528d920b65115c16c04f3efc82aaedc97be59f3f377c0d4184015590917ff652222313e28459528d920b65115c16c04f3efc82aaedc97be59f3f377c0d4201610e8b6003840182612ccc565b50600482810154908201805460ff9092169160ff19166001836006811115610eb557610eb56125fc565b0217905550600581810190610ecc90840182612ccc565b50600681810190610edf90840182612ccc565b5060079182015490820180546001600160a01b0319166001600160a01b0390921691909117905560008281526020918252604080822033835260089093529020815481556001828101549082015560028083015490820155600380820190610f4990840182612ccc565b50600482810154908201805460ff9092169160ff19166001836006811115610f7357610f736125fc565b0217905550600581810190610f8a90840182612ccc565b50600681810190610f9d90840182612ccc565b50600791820154910180546001600160a01b0319166001600160a01b039092169190911790556002805460019190600090610fd9908490612da7565b909155505060008181526009602052604090819020805460ff191660019081179091559051600a9061100c908890612ba1565b908152604051908190036020019020805491151560ff1990921691909117905561103e6000546001600160a01b031690565b6001600160a01b03166108fc349081150290604051600060405180830381858888f19350505050158015611076573d6000803e3d6000fd5b505061108160018055565b50505050565b600d818154811061109757600080fd5b60009182526020909120600890910201805460018201546002830154600384015460048501546005860154600687018054969850949693959294919360ff8216936101009092046001600160a01b03169290916110f390612b67565b80601f016020809104026020016040519081016040528092919081815260200182805461111f90612b67565b801561116c5780601f106111415761010080835404028352916020019161116c565b820191906000526020600020905b81548152906001019060200180831161114f57829003601f168201915b50505050509080600701805461118190612b67565b80601f01602080910402602001604051908101604052809291908181526020018280546111ad90612b67565b80156111fa5780601f106111cf576101008083540402835291602001916111fa565b820191906000526020600020905b8154815290600101906020018083116111dd57829003601f168201915b5050505050905089565b60106020526000908152604090208054600182015460028301546003840154600485015460058601546006870180549697959694959394929360ff8316936101009093046001600160a01b0316929091906110f390612b67565b60086020526000908152604090208054600182015460028301546003840180549394929391929161128e90612b67565b80601f01602080910402602001604051908101604052809291908181526020018280546112ba90612b67565b80156113075780601f106112dc57610100808354040283529160200191611307565b820191906000526020600020905b8154815290600101906020018083116112ea57829003601f168201915b5050506004840154600585018054949560ff90921694919350915061132b90612b67565b80601f016020809104026020016040519081016040528092919081815260200182805461135790612b67565b80156113a45780601f10611379576101008083540402835291602001916113a4565b820191906000526020600020905b81548152906001019060200180831161138757829003601f168201915b5050505050908060060180546113b990612b67565b80601f01602080910402602001604051908101604052809291908181526020018280546113e590612b67565b80156114325780601f1061140757610100808354040283529160200191611432565b820191906000526020600020905b81548152906001019060200180831161141557829003601f168201915b505050600790930154919250506001600160a01b031688565b600081815260096020526040902054819060ff1615156001146114805760405162461bcd60e51b81526004016106a690612b39565b6000828152600760208190526040909120015482906001600160a01b031633146114ec5760405162461bcd60e51b815260206004820152601e60248201527f596f7520446f204e6f74204f776e205468697320486f74656c204974656d000060448201526064016106a6565b6001600160a01b038416330361154f5760405162461bcd60e51b815260206004820152602260248201527f596f75206172652074686520726967687466756c206f776e657220616c726561604482015261647960f01b60648201526084016106a6565b6001600160a01b0384166115b05760405162461bcd60e51b815260206004820152602260248201527f506c65617365207370656369667920612076616c696420455448206164647265604482015261737360f01b60648201526084016106a6565b505060009081526007602081905260409091200180546001600160a01b0319166001600160a01b0392909216919091179055565b600e6020526000908152604090208054600182015460028301546003840154600485015460058601546006870180549697959694959394929360ff8316936101009093046001600160a01b0316929091906110f390612b67565b600081815260106020526040902060060180546060919061165e90612b67565b80601f016020809104026020016040519081016040528092919081815260200182805461168a90612b67565b80156116d75780601f106116ac576101008083540402835291602001916116d7565b820191906000526020600020905b8154815290600101906020018083116116ba57829003601f168201915b50505050509050919050565b600082815260096020526040902054829060ff1615156001146117185760405162461bcd60e51b81526004016106a690612b39565b6000838152600760208190526040909120015483906001600160a01b031633146117845760405162461bcd60e51b815260206004820152601e60248201527f596f7520446f204e6f74204f776e205468697320486f74656c204974656d000060448201526064016106a6565b6000848152600760205260408120908460068111156117a5576117a56125fc565b036117b2576117b2612dc8565b600481015460ff1660068111156117cb576117cb6125fc565b8460068111156117dd576117dd6125fc565b036117ea576117ea612dc8565b60048101805485919060ff1916600183600681111561180b5761180b6125fc565b02179055505050505050565b61181f6123b0565b6118296000612463565b565b60076020526000908152604090208054600182015460028301546003840180549394929391929161128e90612b67565b60008181526011602052604081205481908190819081908190819060609081908a9060ff1615156001146118c75760405162461bcd60e51b8152602060048201526013602482015272149bdbdb48111bd95cc8139bdd08115e1a5cdd606a1b60448201526064016106a6565b6000601060008d8152602001908152602001600020905080600001549a50806001015499508060020154985080600301549750806004015496508060050160009054906101000a900460ff1695508060050160019054906101000a90046001600160a01b0316945080600601805461193e90612b67565b80601f016020809104026020016040519081016040528092919081815260200182805461196a90612b67565b80156119b75780601f1061198c576101008083540402835291602001916119b7565b820191906000526020600020905b81548152906001019060200180831161199a57829003601f168201915b505050505093508060070180546119cd90612b67565b80601f01602080910402602001604051908101604052809291908181526020018280546119f990612b67565b8015611a465780601f10611a1b57610100808354040283529160200191611a46565b820191906000526020600020905b815481529060010190602001808311611a2957829003601f168201915b5050505050925050509193959799909294969850565b33611a6657600080fd5b84600003611ab65760405162461bcd60e51b815260206004820152601d60248201527f4e756d626572206f6620626564732063616e6e6f74206265207a65726f00000060448201526064016106a6565b6000815111611b135760405162461bcd60e51b815260206004820152602360248201527f506c6561736520737065636966792074686520726f6f6d20646573637269707460448201526234b7b760e91b60648201526084016106a6565b83600003611b6f5760405162461bcd60e51b815260206004820152602360248201527f54686520726f6f6d206e696768742070726963652063616e6e6f74206265207a60448201526265726f60e81b60648201526084016106a6565b611b7d600c80546001019055565b6000611b88600c5490565b90506000600760008981526020019081526020016000206000015490506000600760008a8152602001908152602001600020600101549050604051806101200160405280848152602001898152602001838152602001888152602001878152602001600015158152602001336001600160a01b031681526020018681526020018581525060106000858152602001908152602001600020600082015181600001556020820151816001015560408201518160020155606082015181600301556080820151816004015560a08201518160050160006101000a81548160ff02191690831515021790555060c08201518160050160016101000a8154816001600160a01b0302191690836001600160a01b0316021790555060e0820151816006019081611cb39190612c0c565b506101008201516007820190611cc99082612c0c565b5050506000838152601060205260408120600d80546001818101835591909352815460089093027fd7b6990105719101dabeb77144f2a3385c8033acd3af97e9423a695e81ad1eb58101938455908201547fd7b6990105719101dabeb77144f2a3385c8033acd3af97e9423a695e81ad1eb682015560028201547fd7b6990105719101dabeb77144f2a3385c8033acd3af97e9423a695e81ad1eb782015560038201547fd7b6990105719101dabeb77144f2a3385c8033acd3af97e9423a695e81ad1eb882015560048201547fd7b6990105719101dabeb77144f2a3385c8033acd3af97e9423a695e81ad1eb98201556005820180547fd7b6990105719101dabeb77144f2a3385c8033acd3af97e9423a695e81ad1eba8301805460ff909216151560ff1983168117825592546001600160a01b03610100918290041602610100600160a81b03199093166001600160a81b0319909216919091179190911790559091907fd7b6990105719101dabeb77144f2a3385c8033acd3af97e9423a695e81ad1ebb01611e5c6006840182612ccc565b50600781810190611e6f90840182612ccc565b5050506000838152601060209081526040808320338452600e909252909120815481556001808301549082015560028083015490820155600380830154908201556004808301549082015560058083018054918301805460ff909316151560ff198416811782559154610100908190046001600160a01b031602610100600160a81b03199092166001600160a81b031990931692909217179055600680820190611f1b90840182612ccc565b50600781810190611f2e90840182612ccc565b50611f3e91508290506001612da7565b90506001600b6000828254611f539190612da7565b909155505060008381526011602052604090819020805460ff191660019081179091559051601290611f86908890612ba1565b908152604051908190036020019020805491151560ff19909216919091179055505050505050505050565b60606006805480602002602001604051908101604052809291908181526020016000905b82821015610a6d57838290600052602060002090600802016040518061010001604052908160008201548152602001600182015481526020016002820154815260200160038201805461202790612b67565b80601f016020809104026020016040519081016040528092919081815260200182805461205390612b67565b80156120a05780601f10612075576101008083540402835291602001916120a0565b820191906000526020600020905b81548152906001019060200180831161208357829003601f168201915b5050509183525050600482015460209091019060ff1660068111156120c7576120c76125fc565b60068111156120d8576120d86125fc565b81526020016005820180546120ec90612b67565b80601f016020809104026020016040519081016040528092919081815260200182805461211890612b67565b80156121655780601f1061213a57610100808354040283529160200191612165565b820191906000526020600020905b81548152906001019060200180831161214857829003601f168201915b5050505050815260200160068201805461217e90612b67565b80601f01602080910402602001604051908101604052809291908181526020018280546121aa90612b67565b80156121f75780601f106121cc576101008083540402835291602001916121f7565b820191906000526020600020905b8154815290600101906020018083116121da57829003601f168201915b5050509183525050600791909101546001600160a01b03166020918201529082526001929092019101611fd5565b600082815260106020526040902060050154829061010090046001600160a01b031633146122955760405162461bcd60e51b815260206004820152601860248201527f596f7520446f204e6f74204f776e205468697320526f6f6d000000000000000060448201526064016106a6565b816000036122dc5760405162461bcd60e51b815260206004820152601460248201527370726963652043616e6e6f74206265207a65726f60601b60448201526064016106a6565b5060009182526010602052604090912060030155565b6006818154811061230257600080fd5b906000526020600020906008020160009150905080600001549080600101549080600201549080600301805461128e90612b67565b61233f6123b0565b6001600160a01b0381166123a45760405162461bcd60e51b815260206004820152602660248201527f4f776e61626c653a206e6577206f776e657220697320746865207a65726f206160448201526564647265737360d01b60648201526084016106a6565b6123ad81612463565b50565b6000546001600160a01b031633146118295760405162461bcd60e51b815260206004820181905260248201527f4f776e61626c653a2063616c6c6572206973206e6f7420746865206f776e657260448201526064016106a6565b60026001540361245c5760405162461bcd60e51b815260206004820152601f60248201527f5265656e7472616e637947756172643a207265656e7472616e742063616c6c0060448201526064016106a6565b6002600155565b600080546001600160a01b038381166001600160a01b0319831681178455604051919092169283917f8be0079c531659141344cd1fd0a4f28419497f9722a3daafe3b4186f6b6457e09190a35050565b634e487b7160e01b600052604160045260246000fd5b600082601f8301126124da57600080fd5b813567ffffffffffffffff808211156124f5576124f56124b3565b604051601f8301601f19908116603f0116810190828211818310171561251d5761251d6124b3565b8160405283815286602085880101111561253657600080fd5b836020870160208301376000602085830101528094505050505092915050565b60006020828403121561256857600080fd5b813567ffffffffffffffff81111561257f57600080fd5b61258b848285016124c9565b949350505050565b6000602082840312156125a557600080fd5b5035919050565b60005b838110156125c75781810151838201526020016125af565b50506000910152565b600081518084526125e88160208601602086016125ac565b601f01601f19169290920160200192915050565b634e487b7160e01b600052602160045260246000fd5b6007811061263057634e487b7160e01b600052602160045260246000fd5b9052565b87815286602082015285604082015260e06060820152600061265960e08301876125d0565b828103608084015261266b81876125d0565b905082810360a084015261267f81866125d0565b91505061268f60c0830184612612565b98975050505050505050565b602081016126a98284612612565b92915050565b60006020808301818452808551808352604092508286019150828160051b87010184880160005b8381101561278057888303603f1901855281518051845287810151888501528681015187850152606080820151908501526080808201519085015260a08082015115159085015260c0808201516001600160a01b03169085015260e080820151610120828701819052919061274d838801826125d0565b92505050610100808301519250858203818701525061276c81836125d0565b9689019694505050908601906001016126d6565b509098975050505050505050565b6000806000606084860312156127a357600080fd5b833567ffffffffffffffff808211156127bb57600080fd5b6127c7878388016124c9565b945060208601359150808211156127dd57600080fd5b6127e9878388016124c9565b935060408601359150808211156127ff57600080fd5b5061280c868287016124c9565b9150509250925092565b60006101208b83528a602084015289604084015288606084015287608084015286151560a084015260018060a01b03861660c08401528060e084015261285e818401866125d0565b905082810361010084015261287381856125d0565b9c9b505050505050505050505050565b6001600160a01b03811681146123ad57600080fd5b6000602082840312156128aa57600080fd5b81356128b581612883565b9392505050565b60006101008a83528960208401528860408401528060608401526128e2818401896125d0565b90506128f16080840188612612565b82810360a084015261290381876125d0565b905082810360c084015261291781866125d0565b91505060018060a01b03831660e08301529998505050505050505050565b6000806040838503121561294857600080fd5b823561295381612883565b946020939093013593505050565b6020815260006128b560208301846125d0565b6000806040838503121561298757600080fd5b8235915060208301356007811061299d57600080fd5b809150509250929050565b60008060008060008060c087890312156129c157600080fd5b86359550602087013594506040870135935060608701359250608087013567ffffffffffffffff808211156129f557600080fd5b612a018a838b016124c9565b935060a0890135915080821115612a1757600080fd5b50612a2489828a016124c9565b9150509295509295509295565b60006020808301818452808551808352604092508286019150828160051b87010184880160005b8381101561278057603f19898403018552815161010081518552888201518986015287820151888601526060808301518282880152612a99838801826125d0565b92505050608080830151612aaf82880182612612565b505060a08083015186830382880152612ac883826125d0565b9250505060c08083015186830382880152612ae383826125d0565b9250505060e0808301519250612b03818701846001600160a01b03169052565b509588019593505090860190600101612a58565b60008060408385031215612b2a57600080fd5b50508035926020909101359150565b602080825260149082015273121bdd195b08111bd95cc8139bdd08115e1a5cdd60621b604082015260600190565b600181811c90821680612b7b57607f821691505b602082108103612b9b57634e487b7160e01b600052602260045260246000fd5b50919050565b60008251612bb38184602087016125ac565b9190910192915050565b601f821115612c0757600081815260208120601f850160051c81016020861015612be45750805b601f850160051c820191505b81811015612c0357828155600101612bf0565b5050505b505050565b815167ffffffffffffffff811115612c2657612c266124b3565b612c3a81612c348454612b67565b84612bbd565b602080601f831160018114612c6f5760008415612c575750858301515b600019600386901b1c1916600185901b178555612c03565b600085815260208120601f198616915b82811015612c9e57888601518255948401946001909101908401612c7f565b5085821015612cbc5787850151600019600388901b60f8161c191681555b5050505050600190811b01905550565b818103612cd7575050565b612ce18254612b67565b67ffffffffffffffff811115612cf957612cf96124b3565b612d0781612c348454612b67565b6000601f821160018114612d3b5760008315612d235750848201545b600019600385901b1c1916600184901b178455612da0565b600085815260209020601f19841690600086815260209020845b83811015612d755782860154825560019586019590910190602001612d55565b5085831015612d935781850154600019600388901b60f8161c191681555b50505060018360011b0184555b5050505050565b808201808211156126a957634e487b7160e01b600052601160045260246000fd5b634e487b7160e01b600052600160045260246000fdfea2646970667358221220c46fa5122d35b5cf11be8189b98d233cebc9f90d25265d28fcdedf61997e380164736f6c63430008110033",
  "immutableReferences": {},
  "source": "// SPDX-License-Identifier: MIT\npragma solidity ^0.8.0;\n//import '@openzeppelin/contracts/utils/math/SafeMath.sol';\nimport '@openzeppelin/contracts/utils/Counters.sol';\nimport './Hotel.sol';\n\ncontract Room is Hotel{\n    //using SafeMath for uint256;\n    using Counters for Counters.Counter;\n\n    uint public totalRooms = 0;\n    Counters.Counter private _roomIds;\n\n    struct RoomItem{\n        uint id;\n        uint totalBeds;\n        uint hotelId;\n        uint pricePerNight;\n        uint number;\n        bool isBooked;\n        address payable user;\n        string name;\n        string description;\n    }\n\n    RoomItem[] public rooms;\n\n    mapping(address => RoomItem) public roomOwner;\n    mapping(uint => address) public roomTenant; //who currently resides in the room\n    mapping(uint => RoomItem) public roomItemId; //to help track a room item by it's id\n    mapping(uint => bool) public existingRoomItem;\n    mapping(string => bool) public existingRoomItemName;\n\n    //event NewRoomCreated(address indexed user, uint date, uint id);\n    //event RoomNightPriceSet(address indexed user, uint price, uint indexed date);\n    //event RoomBooked(uint date, address indexed tenant, uint indexed amountPaid, uint indexed roomId);\n\n    constructor(){\n\n    }\n\n    modifier roomExists(uint _roomId){\n        require(existingRoomItem[_roomId] == true,\"Room Does Not Exist\");\n        _;\n    }\n\n    modifier roomNameDoesNotExist(string memory _name) {\n      require(bytes(_name).length > 0,\"Please specify the room name\");\n      require(existingRoomItemName[_name] == false,\"Room Name Exists\");\n      _;\n    }\n\n    modifier onlyRoomOwner(uint _roomId){\n        require(msg.sender == roomItemId[_roomId].user,\"You Do Not Own This Room\");\n        _;\n    }\n\n    modifier isNotBooked(uint _roomId){\n      require(roomItemId[_roomId].isBooked == false,\"Room is occupied\");\n      _;\n    }\n\n    //hotelExists(_hotelId)\n    //ownsHotel(_hotelId)\n    //roomNameDoesNotExist(_name)\n    function addRoom(uint _hotelId, uint _totalBeds, uint _pricePerNight, uint _number,string memory _name, string memory _description) public\n    {\n        require(msg.sender != address(0));\n        require(_totalBeds != 0,\"Number of beds cannot be zero\");\n        require(bytes(_description).length > 0,\"Please specify the room description\");\n        require(_pricePerNight != 0,\"The room night price cannot be zero\");\n        _roomIds.increment();\n        uint currentRoomId = _roomIds.current();\n        uint hotelId = hotelItemId[_hotelId].id;\n        uint hotelItemTotalRooms = hotelItemId[_hotelId].totalRooms;\n        roomItemId[currentRoomId]  = RoomItem(currentRoomId,_totalBeds,hotelId,_pricePerNight, _number, false, payable(msg.sender),_name,_description);\n        rooms.push(roomItemId[currentRoomId]);\n        roomOwner[msg.sender] = roomItemId[currentRoomId];\n        hotelItemTotalRooms = hotelItemTotalRooms + 1;\n        totalRooms  += 1;\n        existingRoomItem[currentRoomId] = true;\n        existingRoomItemName[_name] = true;\n        //emit NewRoomCreated(msg.sender, block.timestamp, currentRoomId);\n    }\n\n    function getRoomBioData(uint _roomId) public view roomExists(_roomId) returns(\n        uint _id,\n        uint _numOfBeds,\n        uint _hotelId,\n        uint _pricePerNight,\n        uint _number,\n        bool _isBooked,\n        address _user,\n        string memory _name,\n        string memory _description)\n        {\n            RoomItem storage room = roomItemId[_roomId];\n            _id = room.id;\n            _numOfBeds = room.totalBeds;\n            _hotelId = room.hotelId;\n            _pricePerNight = room.pricePerNight;\n            _number = room.number;\n            _isBooked = room.isBooked;\n            _user = room.user;\n            _name = room.name;\n            _description = room.description;\n        }\n\n    function getName(uint _roomId) external virtual view override returns(string memory){\n      return roomItemId[_roomId].name;\n    }\n\n    function getId(uint _roomId) external virtual view override returns(uint){\n        return roomItemId[_roomId].id;\n    }\n\n    function setNightPrice(uint _roomId, uint _price) public onlyRoomOwner(_roomId){\n        require(_price != 0,\"price Cannot be zero\");\n        roomItemId[_roomId].pricePerNight = _price;\n        //emit RoomNightPriceSet(msg.sender, _price, block.timestamp);\n    }\n\n    function _setBooked(uint _roomId) internal roomExists(_roomId){\n        roomItemId[_roomId].isBooked = true;\n    }\n\n    function listRooms() public view returns(RoomItem[] memory){\n        return rooms;\n    }\n}\n",
  "sourcePath": "C:\\Users\\hamza\\Downloads\\Hotel-Booking-Dapp-master\\Hotel-Booking-Dapp-master\\contracts\\Room.sol",
  "compiler": {
    "name": "solc",
    "version": "0.8.17+commit.8df45f5f.Emscripten.clang"
  },
  "schemaVersion": "3.4.10",
  "updatedAt": "2022-12-05T23:01:00.842Z",
  "networkType": "ethereum",
  "devdoc": {
    "kind": "dev",
    "methods": {
      "owner()": {
        "details": "Returns the address of the current owner."
      },
      "renounceOwnership()": {
        "details": "Leaves the contract without owner. It will not be possible to call `onlyOwner` functions anymore. Can only be called by the current owner. NOTE: Renouncing ownership will leave the contract without an owner, thereby removing any functionality that is only available to the owner."
      },
      "transferOwnership(address)": {
        "details": "Transfers ownership of the contract to a new account (`newOwner`). Can only be called by the current owner."
      }
    },
    "version": 1
  },
  "userdoc": {
    "kind": "user",
    "methods": {},
    "version": 1
  }
}